{"abi":[{"type":"constructor","inputs":[{"name":"_treasury","type":"address","internalType":"address"}],"stateMutability":"nonpayable"},{"type":"receive","stateMutability":"payable"},{"type":"function","name":"DEFAULT_ADMIN_ROLE","inputs":[],"outputs":[{"name":"","type":"bytes32","internalType":"bytes32"}],"stateMutability":"view"},{"type":"function","name":"OPERATOR_ROLE","inputs":[],"outputs":[{"name":"","type":"bytes32","internalType":"bytes32"}],"stateMutability":"view"},{"type":"function","name":"TREASURY_ROLE","inputs":[],"outputs":[{"name":"","type":"bytes32","internalType":"bytes32"}],"stateMutability":"view"},{"type":"function","name":"allProjects","inputs":[{"name":"","type":"uint256","internalType":"uint256"}],"outputs":[{"name":"projectAddress","type":"address","internalType":"address"},{"name":"artist","type":"address","internalType":"address"},{"name":"name","type":"string","internalType":"string"},{"name":"createdAt","type":"uint256","internalType":"uint256"},{"name":"isActive","type":"bool","internalType":"bool"}],"stateMutability":"view"},{"type":"function","name":"artistProjects","inputs":[{"name":"","type":"address","internalType":"address"},{"name":"","type":"uint256","internalType":"uint256"}],"outputs":[{"name":"","type":"address","internalType":"address"}],"stateMutability":"view"},{"type":"function","name":"config","inputs":[],"outputs":[{"name":"platformFeeRate","type":"uint256","internalType":"uint256"},{"name":"minTargetAmount","type":"uint256","internalType":"uint256"},{"name":"maxTargetAmount","type":"uint256","internalType":"uint256"},{"name":"minDuration","type":"uint256","internalType":"uint256"},{"name":"maxDuration","type":"uint256","internalType":"uint256"},{"name":"requireVerification","type":"bool","internalType":"bool"}],"stateMutability":"view"},{"type":"function","name":"createProject","inputs":[{"name":"_tokenName","type":"string","internalType":"string"},{"name":"_tokenSymbol","type":"string","internalType":"string"},{"name":"_projectName","type":"string","internalType":"string"},{"name":"_description","type":"string","internalType":"string"},{"name":"_genre","type":"string","internalType":"string"},{"name":"_location","type":"string","internalType":"string"},{"name":"_artist","type":"address","internalType":"address"},{"name":"_agent","type":"address","internalType":"address"},{"name":"_targetAmount","type":"uint256","internalType":"uint256"},{"name":"_minInvestment","type":"uint256","internalType":"uint256"},{"name":"_totalShares","type":"uint256","internalType":"uint256"},{"name":"_pricePerShare","type":"uint256","internalType":"uint256"},{"name":"_duration","type":"uint256","internalType":"uint256"},{"name":"_allocation","type":"tuple","internalType":"struct ArtistProject.Allocation","components":[{"name":"artistShare","type":"uint256","internalType":"uint256"},{"name":"investorShare","type":"uint256","internalType":"uint256"},{"name":"agentShare","type":"uint256","internalType":"uint256"},{"name":"communityShare","type":"uint256","internalType":"uint256"}]}],"outputs":[{"name":"projectAddress","type":"address","internalType":"address"}],"stateMutability":"nonpayable"},{"type":"function","name":"getArtistProjects","inputs":[{"name":"_artist","type":"address","internalType":"address"}],"outputs":[{"name":"","type":"address[]","internalType":"address[]"}],"stateMutability":"view"},{"type":"function","name":"getProjectCount","inputs":[],"outputs":[{"name":"","type":"uint256","internalType":"uint256"}],"stateMutability":"view"},{"type":"function","name":"getProjects","inputs":[{"name":"_offset","type":"uint256","internalType":"uint256"},{"name":"_limit","type":"uint256","internalType":"uint256"}],"outputs":[{"name":"","type":"tuple[]","internalType":"struct XMusicFactory.ProjectRecord[]","components":[{"name":"projectAddress","type":"address","internalType":"address"},{"name":"artist","type":"address","internalType":"address"},{"name":"name","type":"string","internalType":"string"},{"name":"createdAt","type":"uint256","internalType":"uint256"},{"name":"isActive","type":"bool","internalType":"bool"}]}],"stateMutability":"view"},{"type":"function","name":"getRoleAdmin","inputs":[{"name":"role","type":"bytes32","internalType":"bytes32"}],"outputs":[{"name":"","type":"bytes32","internalType":"bytes32"}],"stateMutability":"view"},{"type":"function","name":"grantRole","inputs":[{"name":"role","type":"bytes32","internalType":"bytes32"},{"name":"account","type":"address","internalType":"address"}],"outputs":[],"stateMutability":"nonpayable"},{"type":"function","name":"hasRole","inputs":[{"name":"role","type":"bytes32","internalType":"bytes32"},{"name":"account","type":"address","internalType":"address"}],"outputs":[{"name":"","type":"bool","internalType":"bool"}],"stateMutability":"view"},{"type":"function","name":"isProject","inputs":[{"name":"","type":"address","internalType":"address"}],"outputs":[{"name":"","type":"bool","internalType":"bool"}],"stateMutability":"view"},{"type":"function","name":"isVerifiedArtist","inputs":[{"name":"_artist","type":"address","internalType":"address"}],"outputs":[{"name":"","type":"bool","internalType":"bool"}],"stateMutability":"view"},{"type":"function","name":"pause","inputs":[],"outputs":[],"stateMutability":"nonpayable"},{"type":"function","name":"paused","inputs":[],"outputs":[{"name":"","type":"bool","internalType":"bool"}],"stateMutability":"view"},{"type":"function","name":"platformTreasury","inputs":[],"outputs":[{"name":"","type":"address","internalType":"address"}],"stateMutability":"view"},{"type":"function","name":"renounceRole","inputs":[{"name":"role","type":"bytes32","internalType":"bytes32"},{"name":"callerConfirmation","type":"address","internalType":"address"}],"outputs":[],"stateMutability":"nonpayable"},{"type":"function","name":"revokeArtist","inputs":[{"name":"_artist","type":"address","internalType":"address"}],"outputs":[],"stateMutability":"nonpayable"},{"type":"function","name":"revokeRole","inputs":[{"name":"role","type":"bytes32","internalType":"bytes32"},{"name":"account","type":"address","internalType":"address"}],"outputs":[],"stateMutability":"nonpayable"},{"type":"function","name":"setTreasury","inputs":[{"name":"_newTreasury","type":"address","internalType":"address"}],"outputs":[],"stateMutability":"nonpayable"},{"type":"function","name":"supportsInterface","inputs":[{"name":"interfaceId","type":"bytes4","internalType":"bytes4"}],"outputs":[{"name":"","type":"bool","internalType":"bool"}],"stateMutability":"view"},{"type":"function","name":"totalInvested","inputs":[],"outputs":[{"name":"","type":"uint256","internalType":"uint256"}],"stateMutability":"view"},{"type":"function","name":"totalProjects","inputs":[],"outputs":[{"name":"","type":"uint256","internalType":"uint256"}],"stateMutability":"view"},{"type":"function","name":"totalRevenue","inputs":[],"outputs":[{"name":"","type":"uint256","internalType":"uint256"}],"stateMutability":"view"},{"type":"function","name":"unpause","inputs":[],"outputs":[],"stateMutability":"nonpayable"},{"type":"function","name":"updateConfig","inputs":[{"name":"_platformFeeRate","type":"uint256","internalType":"uint256"},{"name":"_minTargetAmount","type":"uint256","internalType":"uint256"},{"name":"_maxTargetAmount","type":"uint256","internalType":"uint256"},{"name":"_minDuration","type":"uint256","internalType":"uint256"},{"name":"_maxDuration","type":"uint256","internalType":"uint256"},{"name":"_requireVerification","type":"bool","internalType":"bool"}],"outputs":[],"stateMutability":"nonpayable"},{"type":"function","name":"verifiedArtists","inputs":[{"name":"","type":"address","internalType":"address"}],"outputs":[{"name":"","type":"bool","internalType":"bool"}],"stateMutability":"view"},{"type":"function","name":"verifyArtist","inputs":[{"name":"_artist","type":"address","internalType":"address"}],"outputs":[],"stateMutability":"nonpayable"},{"type":"function","name":"withdrawPlatformFees","inputs":[],"outputs":[],"stateMutability":"nonpayable"},{"type":"event","name":"ArtistRevoked","inputs":[{"name":"artist","type":"address","indexed":true,"internalType":"address"},{"name":"revoker","type":"address","indexed":true,"internalType":"address"}],"anonymous":false},{"type":"event","name":"ArtistVerified","inputs":[{"name":"artist","type":"address","indexed":true,"internalType":"address"},{"name":"verifier","type":"address","indexed":true,"internalType":"address"}],"anonymous":false},{"type":"event","name":"ConfigUpdated","inputs":[{"name":"param","type":"string","indexed":false,"internalType":"string"},{"name":"oldValue","type":"uint256","indexed":false,"internalType":"uint256"},{"name":"newValue","type":"uint256","indexed":false,"internalType":"uint256"}],"anonymous":false},{"type":"event","name":"FeesWithdrawn","inputs":[{"name":"to","type":"address","indexed":true,"internalType":"address"},{"name":"amount","type":"uint256","indexed":false,"internalType":"uint256"}],"anonymous":false},{"type":"event","name":"Paused","inputs":[{"name":"account","type":"address","indexed":false,"internalType":"address"}],"anonymous":false},{"type":"event","name":"ProjectCreated","inputs":[{"name":"projectAddress","type":"address","indexed":true,"internalType":"address"},{"name":"artist","type":"address","indexed":true,"internalType":"address"},{"name":"name","type":"string","indexed":false,"internalType":"string"},{"name":"targetAmount","type":"uint256","indexed":false,"internalType":"uint256"},{"name":"timestamp","type":"uint256","indexed":false,"internalType":"uint256"}],"anonymous":false},{"type":"event","name":"RoleAdminChanged","inputs":[{"name":"role","type":"bytes32","indexed":true,"internalType":"bytes32"},{"name":"previousAdminRole","type":"bytes32","indexed":true,"internalType":"bytes32"},{"name":"newAdminRole","type":"bytes32","indexed":true,"internalType":"bytes32"}],"anonymous":false},{"type":"event","name":"RoleGranted","inputs":[{"name":"role","type":"bytes32","indexed":true,"internalType":"bytes32"},{"name":"account","type":"address","indexed":true,"internalType":"address"},{"name":"sender","type":"address","indexed":true,"internalType":"address"}],"anonymous":false},{"type":"event","name":"RoleRevoked","inputs":[{"name":"role","type":"bytes32","indexed":true,"internalType":"bytes32"},{"name":"account","type":"address","indexed":true,"internalType":"address"},{"name":"sender","type":"address","indexed":true,"internalType":"address"}],"anonymous":false},{"type":"event","name":"TreasuryUpdated","inputs":[{"name":"oldTreasury","type":"address","indexed":false,"internalType":"address"},{"name":"newTreasury","type":"address","indexed":false,"internalType":"address"}],"anonymous":false},{"type":"event","name":"Unpaused","inputs":[{"name":"account","type":"address","indexed":false,"internalType":"address"}],"anonymous":false},{"type":"error","name":"AccessControlBadConfirmation","inputs":[]},{"type":"error","name":"AccessControlUnauthorizedAccount","inputs":[{"name":"account","type":"address","internalType":"address"},{"name":"neededRole","type":"bytes32","internalType":"bytes32"}]},{"type":"error","name":"EnforcedPause","inputs":[]},{"type":"error","name":"ExpectedPause","inputs":[]}],"bytecode":{"object":"0x60806040523461002f576100196100146100f4565b6104db565b610021610034565b618ecf6107688239618ecf90f35b61003a565b60405190565b5f80fd5b601f801991011690565b634e487b7160e01b5f52604160045260245ffd5b906100669061003e565b810190811060018060401b0382111761007e57604052565b610048565b9061009661008f610034565b928361005c565b565b5f80fd5b60018060a01b031690565b6100b09061009c565b90565b6100bc816100a7565b036100c357565b5f80fd5b905051906100d4826100b3565b565b906020828203126100ef576100ec915f016100c7565b90565b610098565b6101126196378038038061010781610083565b9283398101906100d6565b90565b90565b90565b61012f61012a61013492610115565b610118565b61009c565b90565b6101409061011b565b90565b60209181520190565b5f7f496e76616c696420747265617375727920616464726573730000000000000000910152565b6101806018602092610143565b6101898161014c565b0190565b6101a29060208101905f818303910152610173565b90565b156101ac57565b6101b4610034565b62461bcd60e51b8152806101ca6004820161018d565b0390fd5b90565b5f1b90565b6101ea6101e56101ef92610115565b6101d1565b6101ce565b90565b6101fb5f6101d6565b90565b7f97667070c54ef182b0f5858b034beac1b6f3089aa2d3188bb1e8929f4fa9b92990565b7fe1dcbdb91df27212a29bc27177c840cf2f819ecf2187432e1fac86c2dd5dfca990565b9061025760018060a01b03916101d1565b9181191691161790565b61027561027061027a9261009c565b610118565b61009c565b90565b61028690610261565b90565b6102929061027d565b90565b90565b906102ad6102a86102b492610289565b610295565b8254610246565b9055565b6102c260c0610083565b90565b90565b90565b6102df6102da6102e4926102c5565b610118565b6102c8565b90565b906102f1906102c8565b9052565b90565b61030c610307610311926102f5565b610118565b6102c8565b90565b90565b61032b61032661033092610314565b610118565b6102c8565b90565b90565b61034a61034561034f92610333565b610118565b6102c8565b90565b90565b61036961036461036e92610352565b610118565b6102c8565b90565b151590565b9061038090610371565b9052565b61038e90516102c8565b90565b9061039d5f19916101d1565b9181191691161790565b6103bb6103b66103c0926102c8565b610118565b6102c8565b90565b90565b906103db6103d66103e2926103a7565b6103c3565b8254610391565b9055565b6103f09051610371565b90565b906103ff60ff916101d1565b9181191691161790565b61041290610371565b90565b90565b9061042d61042861043492610409565b610415565b82546103f3565b9055565b906104c760a060056104cd9461045b5f82016104555f8801610384565b906103c6565b6104746001820161046e60208801610384565b906103c6565b61048d6002820161048760408801610384565b906103c6565b6104a6600382016104a060608801610384565b906103c6565b6104bf600482016104b960808801610384565b906103c6565b0192016103e6565b90610418565b565b906104d991610438565b565b6104e3610608565b805f6104ee90610137565b6104f7906100a7565b90610501906100a7565b141561050c906101a5565b6105146101f2565b3361051e91610656565b506105276101fe565b3361053191610656565b5061053a610222565b8161054491610656565b50610550906008610298565b60fa683635c9adc5dea0000069d3c21bcecceda100000062093a806276a700915f9361057a6102b8565b95610584906102cb565b5f870190610591916102e7565b61059a906102f8565b60208601906105a8916102e7565b6105b190610317565b60408501906105bf916102e7565b6105c890610336565b60608401906105d6916102e7565b6105df90610355565b60808301906105ed916102e7565b60a08201906105fb91610376565b6106069060026104cf565b565b6106135f6001610418565b565b5f90565b610622906101ce565b90565b9061062f90610619565b5f5260205260405f2090565b9061064590610289565b5f5260205260405f2090565b5f0190565b61065e610615565b5061067361066d82849061072d565b15610371565b5f146106fb5761069a60016106955f61068d818690610625565b01859061063b565b610418565b906106a361075a565b906106e06106da6106d47f2f8788117e7eff1d82e926ec794901d17c78024a50270940304540a733656f0d95610619565b92610289565b92610289565b926106e9610034565b806106f381610651565b0390a4600190565b50505f90565b5f1c90565b60ff1690565b61071861071d91610701565b610706565b90565b61072a905461070c565b90565b610753915f61074861074e93610741610615565b5082610625565b0161063b565b610720565b90565b5f90565b610762610756565b50339056fe60a06040526004361015610015575b366115f557005b61001f5f3561020e565b806301ffc9a714610209578063058d7b3c1461020457806305c81408146101ff57806315ca71df146101fa578063248a9ca3146101f55780632f2ff15d146101f057806336568abe146101eb5780633bcff3b0146101e65780633d453343146101e15780633f4ba83a146101dc5780634c7061b1146101d75780635216aeec146101d257806353b3194c146101cd5780635c975abb146101c8578063657affbf146101c357806379502c55146101be5780638456cb59146101b957806391d14854146101b45780639826952d146101af5780639c361e4e146101aa578063a217fddf146101a5578063a84ce2b5146101a0578063bf2d9e0b1461019b578063d0b7830b14610196578063d11a57ec14610191578063d326c9511461018c578063d547741f14610187578063de58546514610182578063e138818c1461017d578063f0f44260146101785763f5b541a60361000e576115c0565b61155e565b611529565b6114e0565b611425565b6113f0565b611329565b6112c7565b611292565b61124d565b61108b565b61101b565b610fd7565b610f88565b610f55565b610f19565b610e38565b610e03565b610dca565b610ad3565b610a68565b610a35565b6109ff565b6108d8565b610873565b61083f565b6107dd565b610744565b61070a565b61060e565b61029a565b60e01c90565b60405190565b5f80fd5b5f80fd5b5f80fd5b63ffffffff60e01b1690565b61023b81610226565b0361024257565b5f80fd5b9050359061025382610232565b565b9060208282031261026e5761026b915f01610246565b90565b61021e565b151590565b61028190610273565b9052565b9190610298905f60208501940190610278565b565b346102ca576102c66102b56102b0366004610255565b6115fd565b6102bd610214565b91829182610285565b0390f35b61021a565b5f80fd5b5f80fd5b601f801991011690565b634e487b7160e01b5f52604160045260245ffd5b906102ff906102d7565b810190811067ffffffffffffffff82111761031957604052565b6102e1565b9061033161032a610214565b92836102f5565b565b67ffffffffffffffff81116103515761034d6020916102d7565b0190565b6102e1565b90825f939282370152565b9092919261037661037182610333565b61031e565b938185526020850190828401116103925761039092610356565b565b6102d3565b9080601f830112156103b5578160206103b293359101610361565b90565b6102cf565b60018060a01b031690565b6103ce906103ba565b90565b6103da816103c5565b036103e157565b5f80fd5b905035906103f2826103d1565b565b90565b610400816103f4565b0361040757565b5f80fd5b90503590610418826103f7565b565b5f80fd5b919060808382031261047c5761047590610438608061031e565b93610445825f830161040b565b5f860152610456826020830161040b565b6020860152610468826040830161040b565b604086015260600161040b565b6060830152565b61041a565b9190610220838203126105e7575f83013567ffffffffffffffff81116105e257816104ad918501610397565b92602081013567ffffffffffffffff81116105dd57826104ce918301610397565b92604082013567ffffffffffffffff81116105d857836104ef918401610397565b92606083013567ffffffffffffffff81116105d35781610510918501610397565b92608081013567ffffffffffffffff81116105ce5782610531918301610397565b9260a082013567ffffffffffffffff81116105c95783610552918401610397565b926105608160c085016103e5565b9261056e8260e083016103e5565b9261057d83610100840161040b565b9261058c81610120850161040b565b9261059b82610140830161040b565b926105c66105ad84610160850161040b565b936105bc81610180860161040b565b936101a00161041e565b90565b610222565b610222565b610222565b610222565b610222565b610222565b61021e565b6105f5906103c5565b9052565b919061060c905f602085019401906105ec565b565b346106515761064d61063c610624366004610481565b9c9b909b9a919a999299989398979497969596612789565b610644610214565b918291826105f9565b0390f35b61021a565b9060208282031261066f5761066c915f016103e5565b90565b61021e565b90565b61068b610686610690926103ba565b610674565b6103ba565b90565b61069c90610677565b90565b6106a890610693565b90565b906106b59061069f565b5f5260205260405f2090565b1c90565b60ff1690565b6106db9060086106e093026106c1565b6106c5565b90565b906106ee91546106cb565b90565b61070790610702600b915f926106ab565b6106e3565b90565b3461073a57610736610725610720366004610656565b6106f1565b61072d610214565b91829182610285565b0390f35b61021a565b5f0190565b346107725761075c610757366004610656565b612826565b610764610214565b8061076e8161073f565b0390f35b61021a565b90565b61078381610777565b0361078a57565b5f80fd5b9050359061079b8261077a565b565b906020828203126107b6576107b3915f0161078e565b90565b61021e565b6107c490610777565b9052565b91906107db905f602085019401906107bb565b565b3461080d576108096107f86107f336600461079d565b61287b565b610800610214565b918291826107c8565b0390f35b61021a565b919060408382031261083a578061082e610837925f860161078e565b936020016103e5565b90565b61021e565b3461086e57610858610852366004610812565b906128c6565b610860610214565b8061086a8161073f565b0390f35b61021a565b346108a25761088c610886366004610812565b906128d2565b610894610214565b8061089e8161073f565b0390f35b61021a565b5f9103126108b157565b61021e565b6108bf906103f4565b9052565b91906108d6905f602085019401906108b6565b565b34610908576108e83660046108a7565b6109046108f361291a565b6108fb610214565b918291826108c3565b0390f35b61021a565b91906040838203126109355780610929610932925f86016103e5565b9360200161040b565b90565b61021e565b906109449061069f565b5f5260205260405f2090565b634e487b7160e01b5f52603260045260245ffd5b5490565b5f5260205f2090565b61097a81610964565b8210156109945761098c600191610968565b910201905f90565b610950565b60018060a01b031690565b6109b49060086109b993026106c1565b610999565b90565b906109c791546109a4565b90565b6109d590600a61093a565b6109de81610964565b8210156109fb576109f8916109f291610971565b906109bc565b90565b5f80fd5b34610a3057610a2c610a1b610a1536600461090d565b906109ca565b610a23610214565b918291826105f9565b0390f35b61021a565b34610a6357610a453660046108a7565b610a4d612954565b610a55610214565b80610a5f8161073f565b0390f35b61021a565b34610a9657610a80610a7b366004610656565b612a82565b610a88610214565b80610a928161073f565b0390f35b61021a565b90565b610aae906008610ab393026106c1565b610a9b565b90565b90610ac19154610a9e565b90565b610ad0600e5f90610ab6565b90565b34610b0357610ae33660046108a7565b610aff610aee610ac4565b610af6610214565b918291826108c3565b0390f35b61021a565b90602082820312610b2157610b1e915f0161040b565b90565b61021e565b5490565b5f5260205f2090565b610b3c81610b26565b821015610b5657610b4e600591610b2a565b910201905f90565b610950565b5f1c90565b610b6c610b7191610b5b565b610999565b90565b610b7e9054610b60565b90565b634e487b7160e01b5f52602260045260245ffd5b9060016002830492168015610bb5575b6020831014610bb057565b610b81565b91607f1691610ba5565b60209181520190565b5f5260205f2090565b905f9291805490610beb610be483610b95565b8094610bbf565b916001811690815f14610c425750600114610c06575b505050565b610c139192939450610bc8565b915f925b818410610c2a57505001905f8080610c01565b60018160209295939554848601520191019290610c17565b92949550505060ff19168252151560200201905f8080610c01565b90610c6791610bd1565b90565b90610c8a610c8392610c7a610214565b93848092610c5d565b03836102f5565b565b610c98610c9d91610b5b565b610a9b565b90565b610caa9054610c8c565b90565b610cb9610cbe91610b5b565b6106c5565b90565b610ccb9054610cad565b90565b600990610cda82610b26565b811015610d2c57610cea91610b33565b50610cf65f8201610b74565b91610d0360018301610b74565b91610d1060028201610c6a565b91610d296004610d2260038501610ca0565b9301610cc1565b90565b5f80fd5b5190565b60209181520190565b90825f9392825e0152565b610d67610d70602093610d7593610d5e81610d30565b93848093610d34565b95869101610d3d565b6102d7565b0190565b90610db6610dc191610dc896989795610da9608096610d9f60a08801945f8901906105ec565b60208701906105ec565b8482036040860152610d48565b9660608301906108b6565b0190610278565b565b34610dfe57610dfa610de5610de0366004610b08565b610cce565b91610df1959395610214565b95869586610d79565b0390f35b61021a565b34610e3357610e133660046108a7565b610e2f610e1e612a8d565b610e26610214565b91829182610285565b0390f35b61021a565b34610e6857610e64610e53610e4e366004610656565b612aa3565b610e5b610214565b91829182610285565b0390f35b61021a565b600290610e7b5f8301610ca0565b91610e8860018201610ca0565b91610e9560028301610ca0565b91610ea260038201610ca0565b91610ebb6005610eb460048501610ca0565b9301610cc1565b90565b9194610f06610f1092989795610efc60a096610ef2610f179a610ee860c08a019e5f8b01906108b6565b60208901906108b6565b60408701906108b6565b60608501906108b6565b60808301906108b6565b0190610278565b565b34610f5057610f293660046108a7565b610f4c610f34610e6d565b92610f43969496929192610214565b96879687610ebe565b0390f35b61021a565b34610f8357610f653660046108a7565b610f6d612ae6565b610f75610214565b80610f7f8161073f565b0390f35b61021a565b34610fb957610fb5610fa4610f9e366004610812565b90612af0565b610fac610214565b91829182610285565b0390f35b61021a565b610fd490610fcf600c915f926106ab565b6106e3565b90565b3461100757611003610ff2610fed366004610656565b610fbe565b610ffa610214565b91829182610285565b0390f35b61021a565b611018600d5f90610ab6565b90565b3461104b5761102b3660046108a7565b61104761103661100c565b61103e610214565b918291826108c3565b0390f35b61021a565b90565b5f1b90565b61106c61106761107192611050565b611053565b610777565b90565b61107d5f611058565b90565b611088611074565b90565b346110bb5761109b3660046108a7565b6110b76110a6611080565b6110ae610214565b918291826107c8565b0390f35b61021a565b91906040838203126110e857806110dc6110e5925f860161040b565b9360200161040b565b90565b61021e565b5190565b60209181520190565b60200190565b611109906103c5565b9052565b61112c61113560209361113a9361112381610d30565b93848093610bbf565b95869101610d3d565b6102d7565b0190565b611147906103f4565b9052565b61115490610273565b9052565b906111b89060808061119b60a084016111775f8801515f870190611100565b61118960208801516020870190611100565b6040870151858203604087015261110d565b946111ae6060820151606086019061113e565b015191019061114b565b90565b906111c591611158565b90565b60200190565b906111e26111db836110ed565b80926110f1565b90816111f3602083028401946110fa565b925f915b83831061120657505050505090565b90919293946020611228611222838560019503875289516111bb565b976111c8565b93019301919392906111f7565b61124a9160208201915f8184039101526111ce565b90565b3461127e5761127a6112696112633660046110c0565b90612d15565b611271610214565b91829182611235565b0390f35b61021a565b61128f600f5f90610ab6565b90565b346112c2576112a23660046108a7565b6112be6112ad611283565b6112b5610214565b918291826108c3565b0390f35b61021a565b346112f5576112d73660046108a7565b6112df612f56565b6112e7610214565b806112f18161073f565b0390f35b61021a565b7fe1dcbdb91df27212a29bc27177c840cf2f819ecf2187432e1fac86c2dd5dfca990565b6113266112fa565b90565b34611359576113393660046108a7565b61135561134461131e565b61134c610214565b918291826107c8565b0390f35b61021a565b5190565b60209181520190565b60200190565b9061137e81602093611100565b0190565b60200190565b906113a561139f6113988461135e565b8093611362565b9261136b565b905f5b8181106113b55750505090565b9091926113ce6113c86001928651611371565b94611382565b91019190916113a8565b6113ed9160208201915f818403910152611388565b90565b346114205761141c61140b611406366004610656565b613013565b611413610214565b918291826113d8565b0390f35b61021a565b346114545761143e611438366004610812565b9061305c565b611446610214565b806114508161073f565b0390f35b61021a565b61146281610273565b0361146957565b5f80fd5b9050359061147a82611459565b565b909160c0828403126114db57611494835f840161040b565b926114a2816020850161040b565b926114b0826040830161040b565b926114d86114c1846060850161040b565b936114cf816080860161040b565b9360a00161146d565b90565b61021e565b34611515576114ff6114f336600461147c565b9493909392919261348e565b611507610214565b806115118161073f565b0390f35b61021a565b61152660085f906109bc565b90565b34611559576115393660046108a7565b61155561154461151a565b61154c610214565b918291826105f9565b0390f35b61021a565b3461158c57611576611571366004610656565b613552565b61157e610214565b806115888161073f565b0390f35b61021a565b7f97667070c54ef182b0f5858b034beac1b6f3089aa2d3188bb1e8929f4fa9b92990565b6115bd611591565b90565b346115f0576115d03660046108a7565b6115ec6115db6115b5565b6115e3610214565b918291826107c8565b0390f35b61021a565b5f80fd5b5f90565b6116056115f9565b508061162061161a637965db0b60e01b610226565b91610226565b1490811561162d575b5090565b611637915061355d565b5f611629565b5f90565b906116689e9d9c9b9a99989796959493929161166361165e611591565b613583565b61166b565b90565b9061168a9e9d9c9b9a999897969594939291611685613597565b612293565b90565b6116a161169c6116a692611050565b610674565b6103ba565b90565b6116b29061168d565b90565b5f7f496e76616c696420617274697374206164647265737300000000000000000000910152565b6116e96016602092610d34565b6116f2816116b5565b0190565b61170b9060208101905f8183039101526116dc565b90565b1561171557565b61171d610214565b62461bcd60e51b815280611733600482016116f6565b0390fd5b90565b5190565b61175261174d61175792611050565b610674565b6103f4565b90565b5f7f456d7074792070726f6a656374206e616d650000000000000000000000000000910152565b61178e6012602092610d34565b6117978161175a565b0190565b6117b09060208101905f818303910152611781565b90565b156117ba57565b6117c2610214565b62461bcd60e51b8152806117d86004820161179b565b0390fd5b5f7f54617267657420746f6f206c6f77000000000000000000000000000000000000910152565b611810600e602092610d34565b611819816117dc565b0190565b6118329060208101905f818303910152611803565b90565b1561183c57565b611844610214565b62461bcd60e51b81528061185a6004820161181d565b0390fd5b5f7f54617267657420746f6f20686967680000000000000000000000000000000000910152565b611892600f602092610d34565b61189b8161185e565b0190565b6118b49060208101905f818303910152611885565b90565b156118be57565b6118c6610214565b62461bcd60e51b8152806118dc6004820161189f565b0390fd5b5f7f4475726174696f6e20746f6f2073686f72740000000000000000000000000000910152565b6119146012602092610d34565b61191d816118e0565b0190565b6119369060208101905f818303910152611907565b90565b1561194057565b611948610214565b62461bcd60e51b81528061195e60048201611921565b0390fd5b5f7f4475726174696f6e20746f6f206c6f6e67000000000000000000000000000000910152565b6119966011602092610d34565b61199f81611962565b0190565b6119b89060208101905f818303910152611989565b90565b156119c257565b6119ca610214565b62461bcd60e51b8152806119e0600482016119a3565b0390fd5b5f7f496e76616c696420746f74616c20736861726573000000000000000000000000910152565b611a186014602092610d34565b611a21816119e4565b0190565b611a3a9060208101905f818303910152611a0b565b90565b15611a4457565b611a4c610214565b62461bcd60e51b815280611a6260048201611a25565b0390fd5b5f7f496e76616c696420707269636500000000000000000000000000000000000000910152565b611a9a600d602092610d34565b611aa381611a66565b0190565b611abc9060208101905f818303910152611a8d565b90565b15611ac657565b611ace610214565b62461bcd60e51b815280611ae460048201611aa7565b0390fd5b5f7f417274697374206e6f7420766572696669656400000000000000000000000000910152565b611b1c6013602092610d34565b611b2581611ae8565b0190565b611b3e9060208101905f818303910152611b0f565b90565b15611b4857565b611b50610214565b62461bcd60e51b815280611b6660048201611b29565b0390fd5b90606080611bb093611b825f8201515f86019061113e565b611b946020820151602086019061113e565b611ba66040820151604086019061113e565b015191019061113e565b565b9c9a98969f9e9d9b99979594939291908d610240810190808203905f0152611bd991610d48565b8d8082039060200152611beb91610d48565b8c8082039060400152611bfd91610d48565b8b810360608d0152611c0e91610d48565b8a810360808c0152611c1f91610d48565b89810360a08b0152611c3091610d48565b9a60c08901611c3e916105ec565b60e08801611c4b916105ec565b6101008701611c59916105ec565b6101208601611c67916108b6565b6101408501611c75916108b6565b6101608401611c83916108b6565b6101808301611c91916108b6565b6101a08201611c9f916108b6565b6101c001611cac91611b6a565b565b611cb6610214565b3d5f823e3d90fd5b611cc790610693565b90565b90565b611cd760a061031e565b90565b90611ce4906103c5565b9052565b52565b90611cf5906103f4565b9052565b90611d0390610273565b9052565b5f5260205f2090565b5490565b611d1d81611d10565b821015611d3757611d2f600591611d07565b910201905f90565b610950565b634e487b7160e01b5f525f60045260245ffd5b611d5990516103c5565b90565b90611d6d60018060a01b0391611053565b9181191691161790565b90565b90611d8f611d8a611d969261069f565b611d77565b8254611d5c565b9055565b5190565b601f602091010490565b1b90565b91906008611dc7910291611dc15f1984611da8565b92611da8565b9181191691161790565b611de5611de0611dea926103f4565b610674565b6103f4565b90565b90565b9190611e06611e01611e0e93611dd1565b611ded565b908354611dac565b9055565b5f90565b611e2891611e22611e12565b91611df0565b565b5f5b828110611e3857505050565b80611e475f6001938501611e16565b01611e2c565b9190601f8111611e5d575b505050565b818111611e6a575b611e58565b611e7f611e79611e9d94610bc8565b91611d9e565b916020611e8b82611d9e565b9110611ea5575b809101910390611e2a565b5f8080611e65565b505f611e92565b90611ebc905f19906008026106c1565b191690565b81611ecb91611eac565b906002021790565b90611edd81610d30565b9067ffffffffffffffff8211611f9d57611f0182611efb8554610b95565b85611e4d565b602090601f8311600114611f3557918091611f24935f92611f29575b5050611ec1565b90555b565b90915001515f80611f1d565b601f19831691611f4485610bc8565b925f5b818110611f8557509160029391856001969410611f6b575b50505002019055611f27565b611f7b910151601f841690611eac565b90555f8080611f5f565b91936020600181928787015181550195019201611f47565b6102e1565b90611fac91611ed3565b565b611fb890516103f4565b90565b90611fc75f1991611053565b9181191691161790565b90611fe6611fe1611fed92611dd1565b611ded565b8254611fbb565b9055565b611ffb9051610273565b90565b9061200a60ff91611053565b9181191691161790565b61201d90610273565b90565b90565b9061203861203361203f92612014565b612020565b8254611ffe565b9055565b906120b9608060046120bf946120665f82016120605f8801611d4f565b90611d7a565b61207f6001820161207960208801611d4f565b90611d7a565b6120986002820161209260408801611d9a565b90611fa2565b6120b1600382016120ab60608801611fae565b90611fd1565b019201611ff1565b90612023565b565b91906120d2576120d091612043565b565b611d3c565b908154916801000000000000000083101561210757826120ff91600161210595018155611d14565b906120c1565b565b6102e1565b90565b5f5260205f2090565b5490565b61212581612118565b82101561213f5761213760019161210f565b910201905f90565b610950565b9190600861216491029161215e60018060a01b0384611da8565b92611da8565b9181191691161790565b919061218461217f61218c9361069f565b611d77565b908354612144565b9055565b90815491680100000000000000008310156121c057826121b89160016121be9501815561211c565b9061216e565b565b6102e1565b634e487b7160e01b5f52601160045260245ffd5b6121e2906103f4565b5f1981146121f05760010190565b6121c5565b5f80fd5b60e01b90565b9050519061220c8261077a565b565b9060208282031261222757612224915f016121ff565b90565b61021e565b5f91031261223657565b61021e565b91602061225c92949361225560408201965f8301906107bb565b01906105ec565b565b60409061228a61227f6122919597969460608401908482035f860152610d48565b9660208301906108b6565b01906108b6565b565b94889f9e98916122fb8b9f999d97869f999c968f90969e98966122d96122de926122e394506122d26122cc6122c75f6116a9565b6103c5565b916103c5565b141561170e565b611737565b61173a565b6122f56122ef5f61173e565b916103f4565b116117b3565b6123248561231d6123176123126001600201610ca0565b6103f4565b916103f4565b1015611835565b61234c8561234561233f61233a60028001610ca0565b6103f4565b916103f4565b11156118b7565b6123758961236e6123686123636003600201610ca0565b6103f4565b916103f4565b1015611939565b61239e8961239761239161238c6004600201610ca0565b6103f4565b916103f4565b11156119bb565b6123ba876123b46123ae5f61173e565b916103f4565b11611a3d565b6123d6886123d06123ca5f61173e565b916103f4565b11611abf565b8c6123e46005600201610cc1565b612768575b509a998d939190918d93946123fe6008610b74565b969798999a9b9c61240d610214565b60805261561a608051019e8f67ffffffffffffffff6080518210911117612763576124419f61561a61388060805139611bb2565b60805190036080515ff0801561275e579461245b86611cbe565b956124bb6124696009611cca565b88906124b6866124ad896124a4429161249b600195612492612489611ccd565b9a5f8c01611cda565b60208a01611cda565b60408801611ce8565b60608601611ceb565b60808401611cf9565b6120d7565b6124d96124d26124cd600a869061093a565b61210c565b8890612190565b6124ef60016124ea600b8a906106ab565b612023565b61250b6125046124ff600d610ca0565b6121d9565b600d611fd1565b61251481611cbe565b632f2ff15d61253d602061252785611cbe565b63a966a0df90612535610214565b9384926121f9565b8252818061254d6004820161073f565b03915afa908115612759575f9161272b575b508592803b15612726576125865f809461259161257a610214565b978896879586946121f9565b84526004840161223b565b03925af18015612721576126f5575b506125d46125ad82611cbe565b9260206125be632f2ff15d94611cbe565b6322459e18906125cc610214565b9485926121f9565b825281806125e46004820161073f565b03915afa9182156126f0575f926126c0575b5092803b156126bb5761261c5f8094612627612610610214565b978896879586946121f9565b84526004840161223b565b03925af180156126b65761268a575b5084909192429361268561267361266d7ff474a44bbf67e28a60e1e8977a0d7bdf30896d6b88b7c83710a32ad5276119949561069f565b9561069f565b9561267c610214565b9384938461225e565b0390a3565b6126a9905f3d81116126af575b6126a181836102f5565b81019061222c565b5f612636565b503d612697565b611cae565b6121f5565b6126e291925060203d81116126e9575b6126da81836102f5565b81019061220e565b905f6125f6565b503d6126d0565b611cae565b612714905f3d811161271a575b61270c81836102f5565b81019061222c565b5f6125a0565b503d612702565b611cae565b6121f5565b61274c915060203d8111612752575b61274481836102f5565b81019061220e565b5f61255f565b503d61273a565b611cae565b611cae565b6102e1565b61277e61277961278392600c6106ab565b610cc1565b611b41565b8c6123e9565b906127a79d9c9b9a9998979695949392916127a261163d565b611641565b90565b6127c3906127be6127b9611591565b613583565b6127c5565b565b6127da5f6127d5600c84906106ab565b612023565b3361280e6128087f2c972a872c99169a9374dbe09ba8f7481aa656d4d467b208f7f1ca72b510969e9361069f565b9161069f565b91612817610214565b806128218161073f565b0390a3565b61282f906127aa565b565b5f90565b61283e90610777565b90565b9061284b90612835565b5f5260205260405f2090565b90565b61286661286b91610b5b565b612857565b90565b612878905461285a565b90565b60016128936128999261288c612831565b505f612841565b0161286e565b90565b906128b7916128b26128ad8261287b565b613583565b6128b9565b565b906128c3916135c1565b50565b906128d09161289c565b565b90806128ed6128e76128e261366c565b6103c5565b916103c5565b036128fe576128fb91613679565b50565b5f63334bd91960e11b8152806129166004820161073f565b0390fd5b612922611e12565b5061292d6009610b26565b90565b61294061293b611074565b613583565b61294861294a565b565b61295261377a565b565b61295c612930565b565b6129779061297261296d611591565b613583565b6129fb565b565b5f7f496e76616c696420616464726573730000000000000000000000000000000000910152565b6129ad600f602092610d34565b6129b681612979565b0190565b6129cf9060208101905f8183039101526129a0565b90565b156129d957565b6129e1610214565b62461bcd60e51b8152806129f7600482016129ba565b0390fd5b612a2081612a19612a13612a0e5f6116a9565b6103c5565b916103c5565b14156129d2565b612a366001612a31600c84906106ab565b612023565b33612a6a612a647fd20570121be2bd57cea6cc3cb241fbeb60b4162709bb5e0f86414ac92409ff259361069f565b9161069f565b91612a73610214565b80612a7d8161073f565b0390a3565b612a8b9061295e565b565b612a956115f9565b50612aa06001610cc1565b90565b612aba612abf91612ab26115f9565b50600c6106ab565b610cc1565b90565b612ad2612acd611074565b613583565b612ada612adc565b565b612ae46137e4565b565b612aee612ac2565b565b612b16915f612b0b612b1193612b046115f9565b5082612841565b016106ab565b610cc1565b90565b606090565b612b2d612b33919392936103f4565b926103f4565b8201809211612b3e57565b6121c5565b612b52612b58919392936103f4565b926103f4565b8203918211612b6357565b6121c5565b67ffffffffffffffff8111612b805760208091020190565b6102e1565b90612b97612b9283612b68565b61031e565b918252565b612ba660a061031e565b90565b5f90565b606090565b5f90565b5f90565b612bc2612b9c565b9060208080808086612bd2612ba9565b815201612bdd612ba9565b815201612be8612bad565b815201612bf3612bb2565b815201612bfe612bb6565b81525050565b612c0c612bba565b90565b5f5b828110612c1d57505050565b602090612c28612c04565b8184015201612c11565b90612c57612c3f83612b85565b92602080612c4d8693612b68565b9201910390612c0f565b565b6001612c6591016103f4565b90565b90612c72826110ed565b811015612c83576020809102010190565b610950565b90612d07612cfe6004612c99612b9c565b94612cb0612ca85f8301610b74565b5f8801611cda565b612cc8612cbf60018301610b74565b60208801611cda565b612ce0612cd760028301610c6a565b60408801611ce8565b612cf8612cef60038301610ca0565b60608801611ceb565b01610cc1565b60808401611cf9565b565b612d1290612c88565b90565b9190612d2a90612d23612b19565b5083612b1e565b9182612d47612d41612d3c6009610b26565b6103f4565b916103f4565b11612dc8575b612d60612d5b848390612b43565b612c32565b91815b80612d76612d70876103f4565b916103f4565b1015612dc157612dbc90612db5612d8f60098390610b33565b5086612da5612d9f858990612b43565b92612d09565b612daf8383612c68565b52612c68565b5150612c59565b612d63565b5092505090565b9150612dd46009610b26565b91612d4d565b612dea612de56112fa565b613583565b612df2612ea6565b565b612dfd90610693565b90565b5f7f4e6f206665657320746f20776974686472617700000000000000000000000000910152565b612e346013602092610d34565b612e3d81612e00565b0190565b612e569060208101905f818303910152612e27565b90565b15612e6057565b612e68610214565b62461bcd60e51b815280612e7e60048201612e41565b0390fd5b612e8b90610677565b90565b612e9790612e82565b90565b612ea390610693565b90565b612eaf30612df4565b31612ecc81612ec6612ec05f61173e565b916103f4565b11612e59565b5f808080612eea612ee5612ee06008610b74565b612e8e565b612e9a565b8590828215612f4d575bf115612f4857612f046008610b74565b612f43612f317fc0819c13be868895eb93e40eaceb96de976442fa1d404e5c55f14bb65a8c489a9261069f565b92612f3a610214565b918291826108c3565b0390a2565b611cae565b506108fc612ef4565b612f5e612dda565b565b606090565b60209181520190565b612f789054610b60565b90565b60010190565b90612f9e612f98612f9184610964565b8093612f65565b92610968565b905f5b818110612fae5750505090565b909192612fce612fc8600192612fc387612f6e565b611371565b94612f7b565b9101919091612fa1565b90612fe291612f81565b90565b90613005612ffe92612ff5610214565b93848092612fd8565b03836102f5565b565b61301090612fe5565b90565b61302a61302f91613022612f60565b50600a61093a565b613007565b90565b9061304d916130486130438261287b565b613583565b61304f565b565b9061305991613679565b50565b9061306691613032565b565b90613086959493929161308161307c611074565b613583565b613335565b565b90565b61309f61309a6130a492613088565b610674565b6103f4565b90565b5f7f46656520746f6f20686967680000000000000000000000000000000000000000910152565b6130db600c602092610d34565b6130e4816130a7565b0190565b6130fd9060208101905f8183039101526130ce565b90565b1561310757565b61310f610214565b62461bcd60e51b815280613125600482016130e8565b0390fd5b5f7f706c6174666f726d466565526174650000000000000000000000000000000000910152565b61315d600f602092610d34565b61316681613129565b0190565b91604061319b929493613194613189606083018381035f850152613150565b9660208301906108b6565b01906108b6565b565b5f7f6d696e546172676574416d6f756e740000000000000000000000000000000000910152565b6131d1600f602092610d34565b6131da8161319d565b0190565b91604061320f9294936132086131fd606083018381035f8501526131c4565b9660208301906108b6565b01906108b6565b565b5f7f6d6178546172676574416d6f756e740000000000000000000000000000000000910152565b613245600f602092610d34565b61324e81613211565b0190565b91604061328392949361327c613271606083018381035f850152613238565b9660208301906108b6565b01906108b6565b565b61328f60c061031e565b90565b9061332160a06005613327946132b55f82016132af5f8801611fae565b90611fd1565b6132ce600182016132c860208801611fae565b90611fd1565b6132e7600282016132e160408801611fae565b90611fd1565b613300600382016132fa60608801611fae565b90611fd1565b6133196004820161331360808801611fae565b90611fd1565b019201611ff1565b90612023565b565b9061333391613292565b565b9461347361347c929561346a6134859661346161348c9a61336b8161336461335e6103e861308b565b916103f4565b1115613100565b6133775f600201610ca0565b817fd7474166e78731bc168caca1fe1ccebbd6f3c95baee64997902e6b48f442b81a916133ae6133a5610214565b9283928361316a565b0390a16133be6001600201610ca0565b8b7fd7474166e78731bc168caca1fe1ccebbd6f3c95baee64997902e6b48f442b81a916133f56133ec610214565b928392836131de565b0390a161340460028001610ca0565b897fd7474166e78731bc168caca1fe1ccebbd6f3c95baee64997902e6b48f442b81a9161343b613432610214565b92839283613252565b0390a199979193959761345861344f613285565b9b5f8d01611ceb565b60208b01611ceb565b60408901611ceb565b60608701611ceb565b60808501611ceb565b60a08301611cf9565b6002613329565b565b9061349c9594939291613068565b565b6134b7906134b26134ad611074565b613583565b6134dc565b565b9160206134da9294936134d360408201965f8301906105ec565b01906105ec565b565b61355090613505816134fe6134f86134f35f6116a9565b6103c5565b916103c5565b14156129d2565b61350f6008610b74565b817f4ab5be82436d353e61ca18726e984e561f5c1cc7c6d38b29d2553c790434705a9161354661353d610214565b928392836134b9565b0390a16008611d7a565b565b61355b9061349e565b565b6135656115f9565b5061357f6135796301ffc9a760e01b610226565b91610226565b1490565b6135959061358f61366c565b90613811565b565b61359f612a8d565b6135a557565b5f63d93c066560e01b8152806135bd6004820161073f565b0390fd5b6135c96115f9565b506135de6135d8828490612af0565b15610273565b5f146136665761360560016136005f6135f8818690612841565b0185906106ab565b612023565b9061360e61366c565b9061364b61364561363f7f2f8788117e7eff1d82e926ec794901d17c78024a50270940304540a733656f0d95612835565b9261069f565b9261069f565b92613654610214565b8061365e8161073f565b0390a4600190565b50505f90565b61367461163d565b503390565b6136816115f9565b5061368d818390612af0565b5f14613714576136b35f6136ae5f6136a6818690612841565b0185906106ab565b612023565b906136bc61366c565b906136f96136f36136ed7ff6391f5c32d9c69d2a47ea670b442974b53935d1edc7fd64eb21e047a839171b95612835565b9261069f565b9261069f565b92613702610214565b8061370c8161073f565b0390a4600190565b50505f90565b61372261384c565b61372a61372c565b565b6137375f6001612023565b61373f61366c565b6137757f5db9ee0a495bf2e6ff9c91a7834c1ba4fdd244a5e8aa4e537bd38aeae4b073aa9161376c610214565b918291826105f9565b0390a1565b61378261371a565b565b61378c613597565b613794613796565b565b6137a1600180612023565b6137a961366c565b6137df7f62e78cea01bee320cd4e420270b5ea74000d11b0c9f74754ebdbfc544b05a258916137d6610214565b918291826105f9565b0390a1565b6137ec613784565b565b91602061380f92949361380860408201965f8301906105ec565b01906107bb565b565b90613826613820838390612af0565b15610273565b61382e575050565b6138485f92839263e2517d3f60e01b8452600484016137ee565b0390fd5b61385d613857612a8d565b15610273565b61386357565b5f638dfc202b60e01b81528061387b6004820161073f565b0390fdfe6080604052346100425761002c610014610375565b9d9c909c9b919b9a929a999399989498979597610eb1565b610034610047565b613ea76117738239613ea790f35b61004d565b60405190565b5f80fd5b601f801991011690565b634e487b7160e01b5f52604160045260245ffd5b9061007990610051565b810190811060018060401b0382111761009157604052565b61005b565b906100a96100a2610047565b928361006f565b565b5f80fd5b5f80fd5b5f80fd5b5f80fd5b60018060401b0381116100d7576100d3602091610051565b0190565b61005b565b90825f9392825e0152565b909291926100fc6100f7826100bb565b610096565b9381855260208501908284011161011857610116926100dc565b565b6100b7565b9080601f8301121561013b57816020610138935191016100e7565b90565b6100b3565b60018060a01b031690565b61015490610140565b90565b6101608161014b565b0361016757565b5f80fd5b9050519061017882610157565b565b90565b6101868161017a565b0361018d57565b5f80fd5b9050519061019e8261017d565b565b5f80fd5b9190608083820312610202576101fb906101be6080610096565b936101cb825f8301610191565b5f8601526101dc8260208301610191565b60208601526101ee8260408301610191565b6040860152606001610191565b6060830152565b6101a0565b909161024082840312610370575f82015160018060401b03811161036b578361023191840161011d565b92602083015160018060401b038111610366578161025091850161011d565b92604081015160018060401b038111610361578261026f91830161011d565b92606082015160018060401b03811161035c578361028e91840161011d565b92608083015160018060401b03811161035757816102ad91850161011d565b9260a081015160018060401b03811161035257826102cc91830161011d565b926102da8360c0840161016b565b926102e88160e0850161016b565b926102f782610100830161016b565b92610306836101208401610191565b92610315816101408501610191565b92610324826101608301610191565b9261034f610336846101808501610191565b93610345816101a08601610191565b936101c0016101a4565b90565b6100af565b6100af565b6100af565b6100af565b6100af565b6100af565b6100ab565b61039361561a8038038061038881610096565b928339810190610207565b909192939495969798999a9b9c9d9e565b6103ae905161017a565b90565b634e487b7160e01b5f52601160045260245ffd5b6103d46103da9193929361017a565b9261017a565b82018092116103e557565b6103b1565b90565b90565b6104046103ff610409926103ea565b6103ed565b61017a565b90565b60209181520190565b5f7f496e76616c696420616c6c6f636174696f6e0000000000000000000000000000910152565b610449601260209261040c565b61045281610415565b0190565b61046b9060208101905f81830391015261043c565b90565b1561047557565b61047d610047565b62461bcd60e51b81528061049360048201610456565b0390fd5b90565b6104ae6104a96104b392610497565b6103ed565b610140565b90565b6104bf9061049a565b90565b5f7f496e76616c696420617274697374206164647265737300000000000000000000910152565b6104f6601660209261040c565b6104ff816104c2565b0190565b6105189060208101905f8183039101526104e9565b90565b1561052257565b61052a610047565b62461bcd60e51b81528061054060048201610503565b0390fd5b5f7f496e76616c696420747265617375727920616464726573730000000000000000910152565b610578601860209261040c565b61058181610544565b0190565b61059a9060208101905f81830391015261056b565b90565b156105a457565b6105ac610047565b62461bcd60e51b8152806105c260048201610585565b0390fd5b6105da6105d56105df92610497565b6103ed565b61017a565b90565b5f7f496e76616c69642074617267657420616d6f756e740000000000000000000000910152565b610616601560209261040c565b61061f816105e2565b0190565b6106389060208101905f818303910152610609565b90565b1561064257565b61064a610047565b62461bcd60e51b81528061066060048201610623565b0390fd5b5f7f496e76616c696420746f74616c20736861726573000000000000000000000000910152565b610698601460209261040c565b6106a181610664565b0190565b6106ba9060208101905f81830391015261068b565b90565b156106c457565b6106cc610047565b62461bcd60e51b8152806106e2600482016106a5565b0390fd5b5f7f496e76616c696420707269636500000000000000000000000000000000000000910152565b61071a600d60209261040c565b610723816106e6565b0190565b61073c9060208101905f81830391015261070d565b90565b1561074657565b61074e610047565b62461bcd60e51b81528061076460048201610727565b0390fd5b90565b5f1b90565b61078461077f61078992610497565b61076b565b610768565b90565b6107955f610770565b90565b7f877a78dc988c0ec5f58453b44888a55eb39755c3d5ed8d8ea990912aa3ef29c690565b7fcab5a0bfe0b79d2c4b1c2e02599fa044d115b7511f9659307cb427695096770990565b7ffbd454f36a7e1a388bd6fc3ab10d434aa4578f811acbbcf33afb1c697486313c90565b7f65d7a28e3265b37a6474929f336521b332c1681b933f6cb9f3376673440d862a90565b6108336101c0610096565b90565b52565b906108439061014b565b9052565b906108519061017a565b9052565b634e487b7160e01b5f52602160045260245ffd5b6005111561087357565b610855565b9061088282610869565b565b9061088e90610878565b9052565b906108a461089f836100bb565b610096565b918252565b6108b25f610892565b90565b6108bd6108a9565b90565b5190565b5190565b634e487b7160e01b5f52602260045260245ffd5b90600160028304921680156108fc575b60208310146108f757565b6108c8565b91607f16916108ec565b5f5260205f2090565b601f602091010490565b1b90565b919060086109389102916109325f1984610919565b92610919565b9181191691161790565b61095661095161095b9261017a565b6103ed565b61017a565b90565b90565b919061097761097261097f93610942565b61095e565b90835461091d565b9055565b5f90565b61099991610993610983565b91610961565b565b5f5b8281106109a957505050565b806109b85f6001938501610987565b0161099d565b9190601f81116109ce575b505050565b8181116109db575b6109c9565b6109f06109ea610a0e94610906565b9161090f565b9160206109fc8261090f565b9110610a16575b80910191039061099b565b5f80806109d6565b505f610a03565b1c90565b90610a31905f1990600802610a1d565b191690565b81610a4091610a21565b906002021790565b90610a52816108c4565b9060018060401b038211610b1057610a7482610a6e85546108dc565b856109be565b602090601f8311600114610aa857918091610a97935f92610a9c575b5050610a36565b90555b565b90915001515f80610a90565b601f19831691610ab785610906565b925f5b818110610af857509160029391856001969410610ade575b50505002019055610a9a565b610aee910151601f841690610a21565b90555f8080610ad2565b91936020600181928787015181550195019201610aba565b61005b565b90610b1f91610a48565b565b610b2b905161014b565b90565b90610b3f60018060a01b039161076b565b9181191691161790565b610b5d610b58610b6292610140565b6103ed565b610140565b90565b610b6e90610b49565b90565b610b7a90610b65565b90565b90565b90610b95610b90610b9c92610b71565b610b7d565b8254610b2e565b9055565b90610bac5f199161076b565b9181191691161790565b90610bcb610bc6610bd292610942565b61095e565b8254610ba0565b9055565b610be09051610878565b90565b90610bef60ff9161076b565b9181191691161790565b610c0290610878565b90565b90565b90610c1d610c18610c2492610bf9565b610c05565b8254610be3565b9055565b90610d856101a0600d610d8b94610c4c5f8201610c465f88016108c0565b90610b15565b610c6560018201610c5f602088016108c0565b90610b15565b610c7e60028201610c78604088016108c0565b90610b15565b610c9760038201610c91606088016108c0565b90610b15565b610cb060048201610caa60808801610b21565b90610b80565b610cc960058201610cc360a08801610b21565b90610b80565b610ce260068201610cdc60c088016103a4565b90610bb6565b610cfb60078201610cf560e088016103a4565b90610bb6565b610d1560088201610d0f61010088016103a4565b90610bb6565b610d2f60098201610d2961012088016103a4565b90610bb6565b610d49600a8201610d4361014088016103a4565b90610bb6565b610d63600b8201610d5d61016088016103a4565b90610bb6565b610d7d600c8201610d776101808801610bd6565b90610c08565b0192016108c0565b90610b15565b565b90610d9791610c28565b565b90610df660606003610dfc94610dbc5f8201610db65f88016103a4565b90610bb6565b610dd560018201610dcf602088016103a4565b90610bb6565b610dee60028201610de8604088016103a4565b90610bb6565b0192016103a4565b90610bb6565b565b90610e0891610d99565b565b610e19610e1f9193929361017a565b9261017a565b91610e2b83820261017a565b928184041490151715610e3a57565b6103b1565b634e487b7160e01b5f52601260045260245ffd5b610e5f610e659161017a565b9161017a565b908115610e70570490565b610e3f565b610e7e90610b65565b90565b610e8a9061017a565b9052565b916020610eaf929493610ea860408201965f830190610e81565b0190610e81565b565b908d9e9d95969a94979c939899929190610eca916112e9565b8c5f01610ed6906103a4565b8d602001610ee3906103a4565b610eec916103c5565b8d604001610ef9906103a4565b610f02916103c5565b8d606001610f0f906103a4565b610f18916103c5565b612710610f24906103f0565b90610f2e9061017a565b14610f389061046e565b895f610f43906104b6565b610f4c9061014b565b90610f569061014b565b1415610f619061051b565b885f610f6c906104b6565b610f759061014b565b90610f7f9061014b565b1415610f8a9061059d565b815f610f95906105c6565b90610f9f9061017a565b11610fa99061063b565b8a5f610fb4906105c6565b90610fbe9061017a565b11610fc8906106bd565b825f610fd3906105c6565b90610fdd9061017a565b11610fe79061073f565b610fef61078c565b33610ff9916113d3565b50611002610798565b8a61100c916113d3565b506110156107bc565b8c61101f916113d3565b506110286107e0565b33611032916113d3565b5061103b610804565b33611045916113d3565b509695949289918c9091928c949542974290611060916103c5565b9860019a61106c610828565b9c5f8e019061107a91610836565b60208d019061108891610836565b60408c019061109691610836565b60608b01906110a491610836565b60808a01906110b291610839565b60a08901906110c091610839565b60c08801906110ce91610847565b60e08701906110dc91610847565b6101008601906110eb91610847565b6101208501906110fa91610847565b61014084019061110991610847565b61016083019061111891610847565b61018082019061112791610884565b61112f6108b5565b6101a082019061113e91610836565b611149906008610d8d565b84611155906016610dfe565b611160906023610b80565b81845f0161116d906103a4565b61117691610e0a565b612710611182906103f0565b61118b91610e53565b93828160400161119a906103a4565b6111a391610e0a565b6127106111af906103f0565b6111b891610e53565b92906060016111c6906103a4565b6111cf91610e0a565b6127106111db906103f0565b6111e491610e53565b93805f6111f0906105c6565b906111fa9061017a565b116112a5575b50508061121561120f5f6105c6565b9161017a565b11611295575b50508061123061122a5f6105c6565b9161017a565b1161127d575b506112424291426103c5565b7f0897c664c72bc8b676678ef3f10a93980aa3f57017782c69072afcea1d1eb0f69161127861126f610047565b92839283610e8e565b0390a1565b61128f9061128a30610e75565b6114a1565b5f611236565b61129e916114a1565b5f8061121b565b6112ae916114a1565b5f80611200565b151590565b6112c3906112b5565b90565b90565b906112de6112d96112e5926112ba565b6112c6565b8254610be3565b9055565b906112f39161132c565b6112fe5f60076112c9565b565b90565b61131761131261131c92611300565b6103ed565b61017a565b90565b6113296001611303565b90565b906113369161134a565b61134861134161131f565b6006610bb6565b565b9061135491611356565b565b9061136091611362565b565b9061136c9161136e565b565b906113789161137a565b565b90611389611390926003610b15565b6004610b15565b565b5f90565b61139f90610768565b90565b906113ac90611396565b5f5260205260405f2090565b906113c290610b71565b5f5260205260405f2090565b5f0190565b6113db611392565b506113f06113ea82849061152b565b156112b5565b5f146114795761141860016114135f61140b600586906113a2565b0185906113b8565b6112c9565b90611421611559565b9061145e6114586114527f2f8788117e7eff1d82e926ec794901d17c78024a50270940304540a733656f0d95611396565b92610b71565b92610b71565b92611467610047565b80611471816113ce565b0390a4600190565b50505f90565b6114889061014b565b9052565b919061149f905f6020850194019061147f565b565b806114bc6114b66114b15f6104b6565b61014b565b9161014b565b146114d8576114d6916114ce5f6104b6565b919091611603565b565b6114fb6114e45f6104b6565b5f91829163ec442f0560e01b83526004830161148c565b0390fd5b5f1c90565b60ff1690565b61151661151b916114ff565b611504565b90565b611528905461150a565b90565b611552915f61154761154d9361153f611392565b5060056113a2565b016113b8565b61151e565b90565b5f90565b611561611555565b503390565b9061157090610b71565b5f5260205260405f2090565b90565b61158b611590916114ff565b61157c565b90565b61159d905461157f565b90565b6040906115c96115d094969593966115bf60608401985f85019061147f565b6020830190610e81565b0190610e81565b565b906115dd910361017a565b90565b906115eb910161017a565b90565b9190611601905f60208501940190610e81565b565b9190918061162161161b6116165f6104b6565b61014b565b9161014b565b145f146117025761164561163e836116396002611593565b6103c5565b6002610bb6565b5b8261166161165b6116565f6104b6565b61014b565b9161014b565b145f146116d65761168561167e836116796002611593565b6115d2565b6002610bb6565b5b9190916116d16116bf6116b97fddf252ad1be2c89b69c2b068fc378daa952ba7f163c4a11628f55a4df523b3ef93610b71565b93610b71565b936116c8610047565b918291826115ee565b0390a3565b6116fd826116f76116e85f8790611566565b916116f283611593565b6115e0565b90610bb6565b611686565b6117156117105f8390611566565b611593565b806117286117228561017a565b9161017a565b106117505761173b61174b9184906115d2565b6117465f8490611566565b610bb6565b611646565b9061176e9091925f93849363391434e360e21b8552600485016115a0565b0390fdfe60806040526004361015610010575b005b61001a5f356102f9565b806301ffc9a7146102f457806306fdde03146102ef578063095ea7b3146102ea57806318160ddd146102e5578063185b6910146102e057806322459e18146102db57806323b872dd146102d6578063248a9ca3146102d15780632afcf480146102cc5780632f2ff15d146102c7578063313ce567146102c257806331d7a262146102bd57806334fbc9a1146102b857806336568abe146102b3578063372500ab146102ae5780633f4ba83a146102a95780633feb5f2b146102a45780635c975abb1461029f57806362bf0f121461029a5780636da663551461029557806370a0823114610290578063750521f51461028b57806388a17bde1461028657806391d148541461028157806395d89b411461027c57806396b9886214610277578063a217fddf14610272578063a9059cbb1461026d578063a966a0df14610268578063b9e35db014610263578063bd8343451461025e578063bf2d9e0b14610259578063c5c4744c14610254578063d0a2f2c41461024f578063d3ddfcc91461024a578063d547741f14610245578063d95894d814610240578063db2e21bc1461023b578063dd62ed3e14610236578063e138818c14610231578063e63ab1e91461022c578063e7aa3afc14610227578063efca2eed14610222578063f0bd87cc1461021d578063f6a42e4e146102185763f6ed20170361000e576119d6565b6119a1565b6118f5565b611891565b61184d565b611803565b61179f565b61175a565b6116fa565b6116c1565b6115d8565b6115af565b61157a565b6114a6565b611462565b61141e565b6113d0565b61139b565b611336565b611301565b61128d565b61119d565b611167565b61112e565b611086565b611051565b61101e565b610f10565b610ecc565b610e97565b610db4565b610d81565b610d4d565b610d18565b610cac565b610bc9565b610b6d565b610b17565b610abf565b610a48565b6109d9565b61093d565b61054e565b6104f6565b610434565b610385565b60e01c90565b60405190565b5f80fd5b5f80fd5b5f80fd5b63ffffffff60e01b1690565b61032681610311565b0361032d57565b5f80fd5b9050359061033e8261031d565b565b9060208282031261035957610356915f01610331565b90565b610309565b151590565b61036c9061035e565b9052565b9190610383905f60208501940190610363565b565b346103b5576103b16103a061039b366004610340565b611a0f565b6103a86102ff565b91829182610370565b0390f35b610305565b5f9103126103c457565b610309565b5190565b60209181520190565b90825f9392825e0152565b601f801991011690565b61040a61041360209361041893610401816103c9565b938480936103cd565b958691016103d6565b6103e1565b0190565b6104319160208201915f8184039101526103eb565b90565b34610464576104443660046103ba565b61046061044f611a60565b6104576102ff565b9182918261041c565b0390f35b610305565b60018060a01b031690565b61047d90610469565b90565b61048981610474565b0361049057565b5f80fd5b905035906104a182610480565b565b90565b6104af816104a3565b036104b657565b5f80fd5b905035906104c7826104a6565b565b91906040838203126104f157806104e56104ee925f8601610494565b936020016104ba565b90565b610309565b346105275761052361051261050c3660046104c9565b90611a76565b61051a6102ff565b91829182610370565b0390f35b610305565b610535906104a3565b9052565b919061054c905f6020850194019061052c565b565b3461057e5761055e3660046103ba565b61057a610569611a9c565b6105716102ff565b91829182610539565b0390f35b610305565b634e487b7160e01b5f52602260045260245ffd5b90600160028304921680156105b7575b60208310146105b257565b610583565b91607f16916105a7565b60209181520190565b5f5260205f2090565b905f92918054906105ed6105e683610597565b80946105c1565b916001811690815f146106445750600114610608575b505050565b61061591929394506105ca565b915f925b81841061062c57505001905f8080610603565b60018160209295939554848601520191019290610619565b92949550505060ff19168252151560200201905f8080610603565b90610669916105d3565b90565b634e487b7160e01b5f52604160045260245ffd5b9061068a906103e1565b810190811067ffffffffffffffff8211176106a457604052565b61066c565b906106c96106c2926106b96102ff565b9384809261065f565b0383610680565b565b5f1c90565b60018060a01b031690565b6106e76106ec916106cb565b6106d0565b90565b6106f990546106db565b90565b90565b61070b610710916106cb565b6106fc565b90565b61071d90546106ff565b90565b60ff1690565b610732610737916106cb565b610720565b90565b6107449054610726565b90565b6008906107555f83016106a9565b91610762600182016106a9565b9161076f600283016106a9565b9161077c600382016106a9565b91610789600483016106ef565b91610796600582016106ef565b916107a360068301610713565b916107b060078201610713565b916107bd60088301610713565b916107ca60098201610713565b916107d7600a8301610713565b916107e4600b8201610713565b916107fd600d6107f6600c850161073a565b93016106a9565b90565b61080990610474565b9052565b634e487b7160e01b5f52602160045260245ffd5b6005111561082b57565b61080d565b9061083a82610821565b565b61084590610830565b90565b6108519061083c565b9052565b9b999795939291909c9a9896949c6101c08d018d808203905f0152610879916103eb565b8c808203906020015261088b916103eb565b8b810360408d015261089c916103eb565b8a810360608c01526108ad916103eb565b9960808a016108bb91610800565b60a089016108c891610800565b60c088016108d59161052c565b60e087016108e29161052c565b61010086016108f09161052c565b61012085016108fe9161052c565b610140840161090c9161052c565b610160830161091a9161052c565b610180820161092891610848565b808203906101a0015261093a916103eb565b90565b346109805761094d3660046103ba565b61097c610958610747565b9a6109739e9c9e9a919a9992999893989794979695966102ff565b9e8f9e8f610855565b0390f35b610305565b7fcab5a0bfe0b79d2c4b1c2e02599fa044d115b7511f9659307cb427695096770990565b6109b1610985565b90565b90565b6109c0906109b4565b9052565b91906109d7905f602085019401906109b7565b565b34610a09576109e93660046103ba565b610a056109f46109a9565b6109fc6102ff565b918291826109c4565b0390f35b610305565b9091606082840312610a4357610a40610a29845f8501610494565b93610a378160208601610494565b936040016104ba565b90565b610309565b34610a7957610a75610a64610a5e366004610a0e565b91611ab2565b610a6c6102ff565b91829182610370565b0390f35b610305565b610a87816109b4565b03610a8e57565b5f80fd5b90503590610a9f82610a7e565b565b90602082820312610aba57610ab7915f01610a92565b90565b610309565b34610aef57610aeb610ada610ad5366004610aa1565b611b2b565b610ae26102ff565b918291826109c4565b0390f35b610305565b90602082820312610b0d57610b0a915f016104ba565b90565b610309565b5f0190565b610b2a610b25366004610af4565b61235a565b610b326102ff565b80610b3c81610b12565b0390f35b9190604083820312610b685780610b5c610b65925f8601610a92565b93602001610494565b90565b610309565b34610b9c57610b86610b80366004610b40565b9061238f565b610b8e6102ff565b80610b9881610b12565b0390f35b610305565b60ff1690565b610bb090610ba1565b9052565b9190610bc7905f60208501940190610ba7565b565b34610bf957610bd93660046103ba565b610bf5610be46123be565b610bec6102ff565b91829182610bb4565b0390f35b610305565b90602082820312610c1757610c14915f01610494565b90565b610309565b90565b610c33610c2e610c3892610469565b610c1c565b610469565b90565b610c4490610c1f565b90565b610c5090610c3b565b90565b90610c5d90610c47565b5f5260205260405f2090565b1c90565b610c7d906008610c829302610c69565b6106fc565b90565b90610c909154610c6d565b90565b610ca990610ca4601e915f92610c53565b610c85565b90565b34610cdc57610cd8610cc7610cc2366004610bfe565b610c93565b610ccf6102ff565b91829182610539565b0390f35b610305565b90565b610cf8610cf3610cfd92610ce1565b610c1c565b6104a3565b90565b610d0a60fa610ce4565b90565b610d15610d00565b90565b34610d4857610d283660046103ba565b610d44610d33610d0d565b610d3b6102ff565b91829182610539565b0390f35b610305565b34610d7c57610d66610d60366004610b40565b906123d4565b610d6e6102ff565b80610d7881610b12565b0390f35b610305565b34610daf57610d913660046103ba565b610d996125a5565b610da16102ff565b80610dab81610b12565b0390f35b610305565b34610de257610dc43660046103ba565b610dcc61265d565b610dd46102ff565b80610dde81610b12565b0390f35b610305565b634e487b7160e01b5f52603260045260245ffd5b5490565b5f5260205f2090565b610e1181610dfb565b821015610e2b57610e23600191610dff565b910201905f90565b610de7565b610e40906008610e459302610c69565b6106d0565b90565b90610e539154610e30565b90565b6021610e6181610dfb565b821015610e7e57610e7b91610e7591610e08565b90610e48565b90565b5f80fd5b9190610e95905f60208501940190610800565b565b34610ec757610ec3610eb2610ead366004610af4565b610e56565b610eba6102ff565b91829182610e82565b0390f35b610305565b34610efc57610edc3660046103ba565b610ef8610ee7612667565b610eef6102ff565b91829182610370565b0390f35b610305565b610f0d60225f90610c85565b90565b34610f4057610f203660046103ba565b610f3c610f2b610f01565b610f336102ff565b91829182610539565b0390f35b610305565b5f80fd5b5f80fd5b90610f60610f596102ff565b9283610680565b565b67ffffffffffffffff8111610f8057610f7c6020916103e1565b0190565b61066c565b90825f939282370152565b90929192610fa5610fa082610f62565b610f4d565b93818552602085019082840111610fc157610fbf92610f85565b565b610f49565b9080601f83011215610fe457816020610fe193359101610f90565b90565b610f45565b90602082820312611019575f82013567ffffffffffffffff8111611014576110119201610fc6565b90565b61030d565b610309565b3461104c57611036611031366004610fe9565b6126ea565b61103e6102ff565b8061104881610b12565b0390f35b610305565b346110815761107d61106c611067366004610bfe565b6126f5565b6110746102ff565b91829182610539565b0390f35b610305565b346110b45761109e611099366004610fe9565b6129d8565b6110a66102ff565b806110b081610b12565b0390f35b610305565b6016906110c75f8301610713565b916110d460018201610713565b916110ed60036110e660028501610713565b9301610713565b90565b61112561112c9461111b606094989795611111608086019a5f87019061052c565b602085019061052c565b604083019061052c565b019061052c565b565b346111625761113e3660046103ba565b61115e6111496110b9565b906111559492946102ff565b948594856110f0565b0390f35b610305565b346111985761119461118361117d366004610b40565b906129f9565b61118b6102ff565b91829182610370565b0390f35b610305565b346111cd576111ad3660046103ba565b6111c96111b8612a23565b6111c06102ff565b9182918261041c565b0390f35b610305565b906111dc90610c47565b5f5260205260405f2090565b60ff1690565b6111fa6111ff916106cb565b6111e8565b90565b61120c90546111ee565b90565b61121a90601d6111d2565b906112265f8301610713565b9161123360018201610713565b9161124c600361124560028501610713565b9301611202565b90565b61128461128b9461127a606094989795611270608086019a5f87019061052c565b602085019061052c565b604083019061052c565b0190610363565b565b346112c1576112bd6112a86112a3366004610bfe565b61120f565b906112b49492946102ff565b9485948561124f565b0390f35b610305565b90565b5f1b90565b6112e26112dd6112e7926112c6565b6112c9565b6109b4565b90565b6112f35f6112ce565b90565b6112fe6112ea565b90565b34611331576113113660046103ba565b61132d61131c6112f6565b6113246102ff565b918291826109c4565b0390f35b610305565b346113675761136361135261134c3660046104c9565b90612a39565b61135a6102ff565b91829182610370565b0390f35b610305565b7f877a78dc988c0ec5f58453b44888a55eb39755c3d5ed8d8ea990912aa3ef29c690565b61139861136c565b90565b346113cb576113ab3660046103ba565b6113c76113b6611390565b6113be6102ff565b918291826109c4565b0390f35b610305565b34611400576113fc6113eb6113e6366004610bfe565b612a5b565b6113f36102ff565b91829182610539565b0390f35b610305565b61141b90611416601f915f92610c53565b610c85565b90565b3461144e5761144a611439611434366004610bfe565b611405565b6114416102ff565b91829182610539565b0390f35b610305565b61145f601b5f90610c85565b90565b34611492576114723660046103ba565b61148e61147d611453565b6114856102ff565b91829182610539565b0390f35b610305565b6114a3601a5f90610c85565b90565b346114d6576114b63660046103ba565b6114d26114c1611497565b6114c96102ff565b91829182610539565b0390f35b610305565b5190565b60209181520190565b60200190565b6114f790610474565b9052565b90611508816020936114ee565b0190565b60200190565b9061152f611529611522846114db565b80936114df565b926114e8565b905f5b81811061153f5750505090565b90919261155861155260019286516114fb565b9461150c565b9101919091611532565b6115779160208201915f818403910152611512565b90565b346115aa5761158a3660046103ba565b6115a6611595612b2d565b61159d6102ff565b91829182611562565b0390f35b610305565b6115c26115bd366004610fe9565b612e81565b6115ca6102ff565b806115d481610b12565b0390f35b34611607576115f16115eb366004610b40565b90612eb6565b6115f96102ff565b8061160381610b12565b0390f35b610305565b61162061161b611625926104a3565b610c1c565b6104a3565b90565b906116329061160c565b5f5260205260405f2090565b611649906020611628565b906116555f8301610713565b9161166260018201610713565b9161167b6003611674600285016106a9565b9301611202565b90565b9493916060916116bf946116aa6116b7936116a060808b01945f8c019061052c565b60208a019061052c565b87820360408901526103eb565b940190610363565b565b346116f5576116f16116dc6116d7366004610af4565b61163e565b906116e89492946102ff565b9485948561167e565b0390f35b610305565b346117285761170a3660046103ba565b611712613008565b61171a6102ff565b8061172481610b12565b0390f35b610305565b91906040838203126117555780611749611752925f8601610494565b93602001610494565b90565b610309565b3461178b5761178761177661177036600461172d565b90613028565b61177e6102ff565b91829182610539565b0390f35b610305565b61179c60235f90610e48565b90565b346117cf576117af3660046103ba565b6117cb6117ba611790565b6117c26102ff565b91829182610e82565b0390f35b610305565b7f65d7a28e3265b37a6474929f336521b332c1681b933f6cb9f3376673440d862a90565b6118006117d4565b90565b34611833576118133660046103ba565b61182f61181e6117f8565b6118266102ff565b918291826109c4565b0390f35b610305565b919061184b905f60208501940190610848565b565b3461187d5761185d3660046103ba565b611879611868613054565b6118706102ff565b91829182611838565b0390f35b610305565b61188e601c5f90610c85565b90565b346118c1576118a13660046103ba565b6118bd6118ac611882565b6118b46102ff565b91829182610539565b0390f35b610305565b7ffbd454f36a7e1a388bd6fc3ab10d434aa4578f811acbbcf33afb1c697486313c90565b6118f26118c6565b90565b34611925576119053660046103ba565b6119216119106118ea565b6119186102ff565b918291826109c4565b0390f35b610305565b611933906104a3565b9052565b6119409061035e565b9052565b9060608061198a9361195c5f8201515f86019061192a565b61196e6020820151602086019061192a565b6119806040820151604086019061192a565b0151910190611937565b565b919061199f905f60808501940190611944565b565b346119d1576119cd6119bc6119b7366004610bfe565b613140565b6119c46102ff565b9182918261198c565b0390f35b610305565b34611a0657611a026119f16119ec366004610bfe565b61315f565b6119f96102ff565b91829182610539565b0390f35b610305565b5f90565b611a17611a0b565b5080611a32611a2c637965db0b60e01b610311565b91610311565b14908115611a3f575b5090565b611a49915061317e565b5f611a3b565b606090565b611a5d906106a9565b90565b611a68611a4f565b50611a736003611a54565b90565b611a9391611a82611a0b565b50611a8b6131a8565b9190916131b5565b600190565b5f90565b611aa4611a98565b50611aaf6002610713565b90565b91611adc92611abf611a0b565b50611ad4611acb6131a8565b82908491613205565b9190916132b9565b600190565b5f90565b611aee906109b4565b90565b90611afb90611ae5565b5f5260205260405f2090565b90565b611b16611b1b916106cb565b611b07565b90565b611b289054611b0a565b90565b6001611b44611b4a92611b3c611ae1565b506005611af1565b01611b1e565b90565b611b5e90611b59613382565b611bea565b611b66613406565b565b5f7f496e76616c69642070726f6a6563742073746174757300000000000000000000910152565b611b9c60166020926103cd565b611ba581611b68565b0190565b611bbe9060208101905f818303910152611b8f565b90565b15611bc857565b611bd06102ff565b62461bcd60e51b815280611be660048201611ba9565b0390fd5b611c1d90611c186001611c12611c0c611c06600c60080161073a565b92610830565b91610830565b14611bc1565b611c1f565b565b611c3090611c2b61341a565b61208e565b565b5f7f46756e64696e6720706572696f6420656e646564000000000000000000000000910152565b611c6660146020926103cd565b611c6f81611c32565b0190565b611c889060208101905f818303910152611c59565b90565b15611c9257565b611c9a6102ff565b62461bcd60e51b815280611cb060048201611c73565b0390fd5b634e487b7160e01b5f52601260045260245ffd5b634e487b7160e01b5f52601160045260245ffd5b611ce8611cee916104a3565b916104a3565b908115611cf9570490565b611cb4565b5f7f42656c6f77206d696e696d756d00000000000000000000000000000000000000910152565b611d32600d6020926103cd565b611d3b81611cfe565b0190565b611d549060208101905f818303910152611d25565b90565b15611d5e57565b611d666102ff565b62461bcd60e51b815280611d7c60048201611d3f565b0390fd5b611d8f611d95919392936104a3565b926104a3565b91611da18382026104a3565b928184041490151715611db057565b611cc8565b5f7f496e73756666696369656e74207061796d656e74000000000000000000000000910152565b611de960146020926103cd565b611df281611db5565b0190565b611e0b9060208101905f818303910152611ddc565b90565b15611e1557565b611e1d6102ff565b62461bcd60e51b815280611e3360048201611df6565b0390fd5b90565b611e4e611e49611e5392611e37565b610c1c565b6104a3565b90565b611e65611e6b919392936104a3565b926104a3565b8201809211611e7657565b611cc8565b5f7f4578636565647320617661696c61626c65207368617265730000000000000000910152565b611eaf60186020926103cd565b611eb881611e7b565b0190565b611ed19060208101905f818303910152611ea2565b90565b15611edb57565b611ee36102ff565b62461bcd60e51b815280611ef960048201611ebc565b0390fd5b611f11611f0c611f16926112c6565b610c1c565b6104a3565b90565b90565b5f5260205f2090565b5490565b611f3281611f25565b821015611f4c57611f44600191611f1c565b910201905f90565b610de7565b1b90565b91906008611f75910291611f6f60018060a01b0384611f51565b92611f51565b9181191691161790565b90565b9190611f98611f93611fa093610c47565b611f7f565b908354611f55565b9055565b9081549168010000000000000000831015611fd45782611fcc916001611fd295018155611f29565b90611f82565b565b61066c565b90611fe55f19916112c9565b9181191691161790565b90565b9061200761200261200e9261160c565b611fef565b8254611fd9565b9055565b61201b90610c1f565b90565b61202790612012565b90565b61203390610c3b565b90565b61204561204b919392936104a3565b926104a3565b820391821161205657565b611cc8565b6120636102ff565b3d5f823e3d90fd5b91602061208c92949361208560408201965f83019061052c565b019061052c565b565b6120b6426120b06120aa6120a5600b600801610713565b6104a3565b916104a3565b10611c8b565b6120f5816120ee6120e86120e36120d06007600801610713565b6120dd6009600801610713565b90611cdc565b6104a3565b916104a3565b1015611d57565b61210c816121066009600801610713565b90611d80565b6121293461212261211c846104a3565b916104a3565b1015611e0e565b61218f61216261215161213e60088001610713565b61214b6001601601610713565b90611d80565b61215c612710611e3a565b90611cdc565b61218861218261217c612175601a610713565b8790611e56565b926104a3565b916104a3565b1115611ed4565b6121a660016121a0601d33906111d2565b01610713565b6121b86121b25f611efd565b916104a3565b14612341575b6121e8816121e25f6121d2601d33906111d2565b01916121dd83610713565b611e56565b90611ff2565b6122138261220d60016121fd601d33906111d2565b019161220883610713565b611e56565b90611ff2565b61222b426002612225601d33906111d2565b01611ff2565b6122486122418361223c601a610713565b611e56565b601a611ff2565b612253338390613444565b34612266612260836104a3565b916104a3565b11612305575b3390916122997f9e9d071824fd57d062ca63fd8b786d8da48a6807eebbcb2d83f9e8d21398e28c92610c47565b926122ae6122a56102ff565b9283928361206b565b0390a26122bb601a610713565b6122ef6122e96122e46122d16006600801610713565b6122de6009600801610713565b90611cdc565b6104a3565b916104a3565b10156122f8575b565b6123006134a2565b6122f6565b5f80808061231a6123153361201e565b61202a565b612325348790612036565b90828215612338575bf161226c5761205b565b506108fc61232e565b61235561234e6021611f19565b3390611fa4565b6121be565b61236390611b4d565b565b906123809161237b61237682611b2b565b61359b565b612382565b565b9061238c916135af565b50565b9061239991612365565b565b5f90565b90565b6123b66123b16123bb9261239f565b610c1c565b610ba1565b90565b6123c661239b565b506123d160126123a2565b90565b90806123ef6123e96123e46131a8565b610474565b91610474565b03612400576123fd9161365b565b50565b5f63334bd91960e11b81528061241860048201610b12565b0390fd5b612424613382565b61242c6124b8565b612434613406565b565b5f7f4e6f2070656e64696e6720726577617264730000000000000000000000000000910152565b61246a60126020926103cd565b61247381612436565b0190565b61248c9060208101905f81830391015261245d565b90565b1561249657565b61249e6102ff565b62461bcd60e51b8152806124b460048201612477565b0390fd5b6124cc6124c7601e3390610c53565b610713565b6124e8816124e26124dc5f611efd565b916104a3565b1161248f565b6125056124f45f611efd565b612500601e3390610c53565b611ff2565b61252d81612527612518601f3390610c53565b9161252283610713565b611e56565b90611ff2565b5f80808061254261253d3361201e565b61202a565b859082821561259c575bf11561259757336125926125807ffc30cddea38e2bf4d6ea7d3f9ed3b6ad7f176419f4963bd81318067a4aee73fe92610c47565b926125896102ff565b91829182610539565b0390a2565b61205b565b506108fc61254c565b6125ad61241c565b565b6125bf6125ba6117d4565b61359b565b6125c761260e565b565b906125d560ff916112c9565b9181191691161790565b6125e890610830565b90565b90565b906126036125fe61260a926125df565b6125eb565b82546125c9565b9055565b61261661375d565b6126256001600c6008016125ee565b7f1d223002ebb10c9089b8c7c2c244e7dc87d2d2ad0b1ab3b51fc6159110f0a76b61264e6102ff565b8061265881610b12565b0390a1565b6126656125af565b565b61266f611a0b565b5061267a6007611202565b90565b6126969061269161268c6117d4565b61359b565b612698565b565b6126a06137c8565b6126af6004600c6008016125ee565b6126e57f8edb49844d2cd5ec4eff302f4b5bd6aa52a12b76a64b9545a4fc71778a3e7b20916126dc6102ff565b9182918261041c565b0390a1565b6126f39061267d565b565b61270b61271091612704611a98565b505f610c53565b610713565b90565b5f7f4e6f7420617574686f72697a6564000000000000000000000000000000000000910152565b612747600e6020926103cd565b61275081612713565b0190565b6127699060208101905f81830391015261273a565b90565b1561277357565b61277b6102ff565b62461bcd60e51b81528061279160048201612754565b0390fd5b6127c0906127ab6127a461136c565b33906129f9565b80156127c2575b6127bb9061276c565b6129c8565b565b506127bb6127d86127d16112ea565b33906129f9565b90506127b2565b601f602091010490565b919060086128049102916127fe5f1984611f51565b92611f51565b9181191691161790565b919061282461281f61282c9361160c565b611fef565b9083546127e9565b9055565b6128429161283c611a98565b9161280e565b565b5f5b82811061285257505050565b806128615f6001938501612830565b01612846565b9190601f8111612877575b505050565b818111612884575b612872565b6128996128936128b7946105ca565b916127df565b9160206128a5826127df565b91106128bf575b809101910390612844565b5f808061287f565b505f6128ac565b906128d6905f1990600802610c69565b191690565b816128e5916128c6565b906002021790565b906128f7816103c9565b9067ffffffffffffffff82116129b75761291b826129158554610597565b85612867565b602090601f831160011461294f5791809161293e935f92612943575b50506128db565b90555b565b90915001515f80612937565b601f1983169161295e856105ca565b925f5b81811061299f57509160029391856001969410612985575b50505002019055612941565b612995910151601f8416906128c6565b90555f8080612979565b91936020600181928787015181550195019201612961565b61066c565b906129c6916128ed565b565b6129d690600d6008016129bc565b565b6129e190612795565b565b906129ed90610c47565b5f5260205260405f2090565b612a20915f612a15612a1b93612a0d611a0b565b506005611af1565b016129e3565b611202565b90565b612a2b611a4f565b50612a366004611a54565b90565b612a5691612a45611a0b565b50612a4e6131a8565b9190916132b9565b600190565b612a72612a7791612a6a611a98565b50601f610c53565b610713565b90565b606090565b60209181520190565b612a9290546106db565b90565b60010190565b90612ab8612ab2612aab84610dfb565b8093612a7f565b92610dff565b905f5b818110612ac85750505090565b909192612ae8612ae2600192612add87612a88565b6114fb565b94612a95565b9101919091612abb565b90612afc91612a9b565b90565b90612b1f612b1892612b0f6102ff565b93848092612af2565b0383610680565b565b612b2a90612aff565b90565b612b35612a7a565b50612b406021612b21565b90565b612b6e90612b59612b5261136c565b33906129f9565b8015612b70575b612b699061276c565b612b8d565b565b50612b69612b86612b7f6112ea565b33906129f9565b9050612b60565b612bc090612bbb6002612bb5612baf612ba9600c60080161073a565b92610830565b91610830565b14611bc1565b612d70565b565b5f7f4d7573742073656e6420726576656e7565000000000000000000000000000000910152565b612bf660116020926103cd565b612bff81612bc2565b0190565b612c189060208101905f818303910152612be9565b90565b15612c2257565b612c2a6102ff565b62461bcd60e51b815280612c4060048201612c03565b0390fd5b612c4d906104a3565b5f198114612c5b5760010190565b611cc8565b612c6a6080610f4d565b90565b90612c77906104a3565b9052565b52565b90612c889061035e565b9052565b612c9690516104a3565b90565b5190565b612ca7905161035e565b90565b612cb39061035e565b90565b90565b90612cce612cc9612cd592612caa565b612cb6565b82546125c9565b9055565b90612d3660606003612d3c94612cfc5f8201612cf65f8801612c8c565b90611ff2565b612d1560018201612d0f60208801612c8c565b90611ff2565b612d2e60028201612d2860408801612c99565b906129bc565b019201612c9d565b90612cb9565b565b90612d4891612cd9565b565b91612d6d92612d6060408201935f83019061052c565b60208184039101526103eb565b90565b612d8c34612d86612d805f611efd565b916104a3565b11612c1b565b612da8612da1612d9c6022610713565b612c44565b6022611ff2565b612e0234612de842612ddf85612dd65f93612dcd612dc4612c60565b975f8901612c6d565b60208701612c6d565b60408501612c7b565b60608301612c7e565b612dfd6020612df76022610713565b90611628565b612d3e565b612e1f612e1834612e13601b610713565b611e56565b601b611ff2565b612e296022610713565b3491612e557fc2738553fdfbede8bab447366fa942543d88d624730eb56f37d091f6fac373dc9261160c565b92612e6a612e616102ff565b92839283612d4a565b0390a2612e7f612e7a6022610713565b6138e8565b565b612e8a90612b43565b565b90612ea791612ea2612e9d82611b2b565b61359b565b612ea9565b565b90612eb39161365b565b50565b90612ec091612e8c565b565b612ed2612ecd6112ea565b61359b565b612eda612f6a565b565b612ee590610c3b565b90565b5f7f4e6f2062616c616e636500000000000000000000000000000000000000000000910152565b612f1c600a6020926103cd565b612f2581612ee8565b0190565b612f3e9060208101905f818303910152612f0f565b90565b15612f4857565b612f506102ff565b62461bcd60e51b815280612f6660048201612f29565b0390fd5b612f7330612edc565b31612f9081612f8a612f845f611efd565b916104a3565b11612f41565b5f808080612fa5612fa03361201e565b61202a565b8590828215612fff575bf115612ffa5733612ff5612fe37f5fafa99d0643513820be26656b45130b01e1c03062e1266bf36f88cbd3bd969592610c47565b92612fec6102ff565b91829182610539565b0390a2565b61205b565b506108fc612faf565b613010612ec2565b565b9061301c90610c47565b5f5260205260405f2090565b61304d916130436130489261303b611a98565b506001613012565b610c53565b610713565b90565b5f90565b61305c613050565b5061306a600c60080161073a565b90565b6130776080610f4d565b90565b5f90565b5f90565b61308a61306d565b9060208080808561309961307a565b8152016130a461307a565b8152016130af61307a565b8152016130ba61307e565b81525050565b6130c8613082565b90565b9061313261312960036130dc61306d565b946130f36130eb5f8301610713565b5f8801612c6d565b61310b61310260018301610713565b60208801612c6d565b61312361311a60028301610713565b60408801612c6d565b01611202565b60608401612c7e565b565b61313d906130cb565b90565b61315761315c9161314f6130c0565b50601d6111d2565b613134565b90565b61317661317b9161316e611a98565b50601e610c53565b610713565b90565b613186611a0b565b506131a061319a6301ffc9a760e01b610311565b91610311565b1490565b5f90565b6131b06131a4565b503390565b916131c39291600192613b54565b565b6040906131ee6131f594969593966131e460608401985f850190610800565b602083019061052c565b019061052c565b565b9061320291036104a3565b90565b929192613213818390613028565b90816132286132225f196104a3565b916104a3565b03613235575b5050509050565b81613248613242876104a3565b916104a3565b1061326e57613265939461325d9193926131f7565b905f92613b54565b805f808061322e565b5061328d849291925f938493637dc7a0d960e11b8552600485016131c5565b0390fd5b6132a56132a06132aa926112c6565b610c1c565b610469565b90565b6132b690613291565b90565b91826132d56132cf6132ca5f6132ad565b610474565b91610474565b1461332f57816132f56132ef6132ea5f6132ad565b610474565b91610474565b146133085761330692919091613c71565b565b61332b6133145f6132ad565b5f91829163ec442f0560e01b835260048301610e82565b0390fd5b61335261333b5f6132ad565b5f918291634b637e8f60e11b835260048301610e82565b0390fd5b90565b61336d61336861337292613356565b610c1c565b6104a3565b90565b61337f6002613359565b90565b61338c6006610713565b6133a561339f61339a613375565b6104a3565b916104a3565b146133be576133bc6133b5613375565b6006611ff2565b565b5f633ee5aeb560e01b8152806133d660048201610b12565b0390fd5b90565b6133f16133ec6133f6926133da565b610c1c565b6104a3565b90565b61340360016133dd565b90565b6134186134116133f9565b6006611ff2565b565b613422612667565b61342857565b5f63d93c066560e01b81528061344060048201610b12565b0390fd5b8061345f6134596134545f6132ad565b610474565b91610474565b1461347b57613479916134715f6132ad565b919091613c71565b565b61349e6134875f6132ad565b5f91829163ec442f0560e01b835260048301610e82565b0390fd5b6134b16002600c6008016125ee565b6134f66134e56134d76134c4601a610713565b6134d16009600801610713565b90611d80565b6134df610d00565b90611d80565b6134f0612710611e3a565b90611cdc565b5f80808061352461351d61350a601a610713565b6135176009600801610713565b90611d80565b8690612036565b9461353f61353a61353560236106ef565b61201e565b61202a565b828215613592575bf11561358d575f8080809361356f61356a61356560046008016106ef565b61201e565b61202a565b828215613584575bf11561357f57565b61205b565b506108fc613577565b61205b565b506108fc613547565b6135ad906135a76131a8565b90613e03565b565b6135b7611a0b565b506135cc6135c68284906129f9565b1561035e565b5f14613655576135f460016135ef5f6135e760058690611af1565b0185906129e3565b612cb9565b906135fd6131a8565b9061363a61363461362e7f2f8788117e7eff1d82e926ec794901d17c78024a50270940304540a733656f0d95611ae5565b92610c47565b92610c47565b926136436102ff565b8061364d81610b12565b0390a4600190565b50505f90565b613663611a0b565b5061366f8183906129f9565b5f146136f7576136965f6136915f61368960058690611af1565b0185906129e3565b612cb9565b9061369f6131a8565b906136dc6136d66136d07ff6391f5c32d9c69d2a47ea670b442974b53935d1edc7fd64eb21e047a839171b95611ae5565b92610c47565b92610c47565b926136e56102ff565b806136ef81610b12565b0390a4600190565b50505f90565b613705613e3e565b61370d61370f565b565b61371a5f6007612cb9565b6137226131a8565b6137587f5db9ee0a495bf2e6ff9c91a7834c1ba4fdd244a5e8aa4e537bd38aeae4b073aa9161374f6102ff565b91829182610e82565b0390a1565b6137656136fd565b565b61376f61341a565b613777613779565b565b61378560016007612cb9565b61378d6131a8565b6137c37f62e78cea01bee320cd4e420270b5ea74000d11b0c9f74754ebdbfc544b05a258916137ba6102ff565b91829182610e82565b0390a1565b6137d0613767565b565b90565b5f7f416c726561647920646973747269627574656400000000000000000000000000910152565b61380960136020926103cd565b613812816137d5565b0190565b61382b9060208101905f8183039101526137fc565b90565b1561383557565b61383d6102ff565b62461bcd60e51b81528061385360048201613816565b0390fd5b5f7f4e6f207368617265732069737375656400000000000000000000000000000000910152565b61388b60106020926103cd565b61389481613857565b0190565b6138ad9060208101905f81830391015261387e565b90565b156138b757565b6138bf6102ff565b62461bcd60e51b8152806138d560048201613898565b0390fd5b60016138e591016104a3565b90565b6138fc6138f760208390611628565b6137d2565b61391961391461390e60038401611202565b1561035e565b61382e565b613921611a9c565b61393d816139376139315f611efd565b916104a3565b116138b0565b6139465f611efd565b5b8061396361395d6139586021610dfb565b6104a3565b916104a3565b10156139fc576139ac9061398261397c60218390610e08565b90610e48565b61398b816126f5565b908161399f6139995f611efd565b916104a3565b116139b1575b50506138d9565b613947565b6139ef6139e06139d86139d16139f5956139cc5f8c01610713565b611d80565b8890611cdc565b92601e610c53565b916139ea83610713565b611e56565b90611ff2565b5f806139a5565b5050905f613b0f91613a6b613a3b613a2a613a18858801610713565b613a2486601601610713565b90611d80565b613a35612710611e3a565b90611cdc565b613a65613a56601e613a5060046008016106ef565b90610c53565b91613a6083610713565b611e56565b90611ff2565b613ad3613aa3613a92613a7f858801610713565b613a8c6002601601610713565b90611d80565b613a9d612710611e3a565b90611cdc565b613acd613abe601e613ab860056008016106ef565b90610c53565b91613ac883610713565b611e56565b90611ff2565b613ae1600160038601612cb9565b613b08613b01613af2848701610713565b613afc601c610713565b611e56565b601c611ff2565b9201610713565b90613b4f613b3d7f29e98ba00d07f171959c4ddcd2f3020debc7c52cf537a034d7e664340d098c6c9261160c565b92613b466102ff565b91829182610539565b0390a2565b909281613b71613b6b613b665f6132ad565b610474565b91610474565b14613c3c5783613b91613b8b613b865f6132ad565b610474565b91610474565b14613c1557613bb583613bb0613ba960018690613012565b8790610c53565b611ff2565b613bbf575b505050565b919091613c0a613bf8613bf27f8c5be1e5ebec7d5bd14f71427d1e84f3dd0314c0f7b2291e5b200ac8c7c3b92593610c47565b93610c47565b93613c016102ff565b91829182610539565b0390a35f8080613bba565b613c38613c215f6132ad565b5f918291634a1406b160e11b835260048301610e82565b0390fd5b613c5f613c485f6132ad565b5f91829163e602df0560e01b835260048301610e82565b0390fd5b90613c6e91016104a3565b90565b91909180613c8f613c89613c845f6132ad565b610474565b91610474565b145f14613d7057613cb3613cac83613ca76002610713565b611e56565b6002611ff2565b5b82613ccf613cc9613cc45f6132ad565b610474565b91610474565b145f14613d4457613cf3613cec83613ce76002610713565b6131f7565b6002611ff2565b5b919091613d3f613d2d613d277fddf252ad1be2c89b69c2b068fc378daa952ba7f163c4a11628f55a4df523b3ef93610c47565b93610c47565b93613d366102ff565b91829182610539565b0390a3565b613d6b82613d65613d565f8790610c53565b91613d6083610713565b613c63565b90611ff2565b613cf4565b613d83613d7e5f8390610c53565b610713565b80613d96613d90856104a3565b916104a3565b10613dbe57613da9613db99184906131f7565b613db45f8490610c53565b611ff2565b613cb4565b90613ddc9091925f93849363391434e360e21b8552600485016131c5565b0390fd5b916020613e01929493613dfa60408201965f830190610800565b01906109b7565b565b90613e18613e128383906129f9565b1561035e565b613e20575050565b613e3a5f92839263e2517d3f60e01b845260048401613de0565b0390fd5b613e4f613e49612667565b1561035e565b613e5557565b5f638dfc202b60e01b815280613e6d60048201610b12565b0390fdfea26469706673582212206d9b86504ae0c77cda0e798500900fc65eb0742a7aa937820d8b7c31a583372c64736f6c63430008210033a26469706673582212209a708b81b7267227a57ddf651b2c4f05d5bfc16cf24671b0d86377174144d27f64736f6c63430008210033","linkReferences":{}},"methodIdentifiers":{"DEFAULT_ADMIN_ROLE()":"a217fddf","OPERATOR_ROLE()":"f5b541a6","TREASURY_ROLE()":"d11a57ec","allProjects(uint256)":"53b3194c","artistProjects(address,uint256)":"3d453343","config()":"79502c55","createProject(string,string,string,string,string,string,address,address,uint256,uint256,uint256,uint256,uint256,(uint256,uint256,uint256,uint256))":"058d7b3c","getArtistProjects(address)":"d326c951","getProjectCount()":"3bcff3b0","getProjects(uint256,uint256)":"a84ce2b5","getRoleAdmin(bytes32)":"248a9ca3","grantRole(bytes32,address)":"2f2ff15d","hasRole(bytes32,address)":"91d14854","isProject(address)":"05c81408","isVerifiedArtist(address)":"657affbf","pause()":"8456cb59","paused()":"5c975abb","platformTreasury()":"e138818c","renounceRole(bytes32,address)":"36568abe","revokeArtist(address)":"15ca71df","revokeRole(bytes32,address)":"d547741f","setTreasury(address)":"f0f44260","supportsInterface(bytes4)":"01ffc9a7","totalInvested()":"5216aeec","totalProjects()":"9c361e4e","totalRevenue()":"bf2d9e0b","unpause()":"3f4ba83a","updateConfig(uint256,uint256,uint256,uint256,uint256,bool)":"de585465","verifiedArtists(address)":"9826952d","verifyArtist(address)":"4c7061b1","withdrawPlatformFees()":"d0b7830b"},"id":28}