{"abi":[{"type":"constructor","inputs":[],"stateMutability":"nonpayable"},{"type":"function","name":"BURNER_ROLE","inputs":[],"outputs":[{"name":"","type":"bytes32","internalType":"bytes32"}],"stateMutability":"view"},{"type":"function","name":"COMMUNITY_REWARDS","inputs":[],"outputs":[{"name":"","type":"uint256","internalType":"uint256"}],"stateMutability":"view"},{"type":"function","name":"DEFAULT_ADMIN_ROLE","inputs":[],"outputs":[{"name":"","type":"bytes32","internalType":"bytes32"}],"stateMutability":"view"},{"type":"function","name":"ECOSYSTEM","inputs":[],"outputs":[{"name":"","type":"uint256","internalType":"uint256"}],"stateMutability":"view"},{"type":"function","name":"INVESTORS","inputs":[],"outputs":[{"name":"","type":"uint256","internalType":"uint256"}],"stateMutability":"view"},{"type":"function","name":"LIQUIDITY","inputs":[],"outputs":[{"name":"","type":"uint256","internalType":"uint256"}],"stateMutability":"view"},{"type":"function","name":"MAX_SUPPLY","inputs":[],"outputs":[{"name":"","type":"uint256","internalType":"uint256"}],"stateMutability":"view"},{"type":"function","name":"MINTER_ROLE","inputs":[],"outputs":[{"name":"","type":"bytes32","internalType":"bytes32"}],"stateMutability":"view"},{"type":"function","name":"PAUSER_ROLE","inputs":[],"outputs":[{"name":"","type":"bytes32","internalType":"bytes32"}],"stateMutability":"view"},{"type":"function","name":"TEAM_ADVISORS","inputs":[],"outputs":[{"name":"","type":"uint256","internalType":"uint256"}],"stateMutability":"view"},{"type":"function","name":"allowance","inputs":[{"name":"owner","type":"address","internalType":"address"},{"name":"spender","type":"address","internalType":"address"}],"outputs":[{"name":"","type":"uint256","internalType":"uint256"}],"stateMutability":"view"},{"type":"function","name":"approve","inputs":[{"name":"spender","type":"address","internalType":"address"},{"name":"value","type":"uint256","internalType":"uint256"}],"outputs":[{"name":"","type":"bool","internalType":"bool"}],"stateMutability":"nonpayable"},{"type":"function","name":"balanceOf","inputs":[{"name":"account","type":"address","internalType":"address"}],"outputs":[{"name":"","type":"uint256","internalType":"uint256"}],"stateMutability":"view"},{"type":"function","name":"batchMint","inputs":[{"name":"_recipients","type":"address[]","internalType":"address[]"},{"name":"_amounts","type":"uint256[]","internalType":"uint256[]"},{"name":"_category","type":"string","internalType":"string"}],"outputs":[],"stateMutability":"nonpayable"},{"type":"function","name":"burn","inputs":[{"name":"_amount","type":"uint256","internalType":"uint256"}],"outputs":[],"stateMutability":"nonpayable"},{"type":"function","name":"burnFrom","inputs":[{"name":"_account","type":"address","internalType":"address"},{"name":"_amount","type":"uint256","internalType":"uint256"}],"outputs":[],"stateMutability":"nonpayable"},{"type":"function","name":"createVesting","inputs":[{"name":"_beneficiary","type":"address","internalType":"address"},{"name":"_amount","type":"uint256","internalType":"uint256"},{"name":"_cliffDuration","type":"uint256","internalType":"uint256"},{"name":"_vestingDuration","type":"uint256","internalType":"uint256"},{"name":"_revocable","type":"bool","internalType":"bool"}],"outputs":[],"stateMutability":"nonpayable"},{"type":"function","name":"decimals","inputs":[],"outputs":[{"name":"","type":"uint8","internalType":"uint8"}],"stateMutability":"view"},{"type":"function","name":"getReleasableAmount","inputs":[{"name":"_beneficiary","type":"address","internalType":"address"}],"outputs":[{"name":"","type":"uint256","internalType":"uint256"}],"stateMutability":"view"},{"type":"function","name":"getRoleAdmin","inputs":[{"name":"role","type":"bytes32","internalType":"bytes32"}],"outputs":[{"name":"","type":"bytes32","internalType":"bytes32"}],"stateMutability":"view"},{"type":"function","name":"grantRole","inputs":[{"name":"role","type":"bytes32","internalType":"bytes32"},{"name":"account","type":"address","internalType":"address"}],"outputs":[],"stateMutability":"nonpayable"},{"type":"function","name":"hasRole","inputs":[{"name":"role","type":"bytes32","internalType":"bytes32"},{"name":"account","type":"address","internalType":"address"}],"outputs":[{"name":"","type":"bool","internalType":"bool"}],"stateMutability":"view"},{"type":"function","name":"mint","inputs":[{"name":"_to","type":"address","internalType":"address"},{"name":"_amount","type":"uint256","internalType":"uint256"},{"name":"_category","type":"string","internalType":"string"}],"outputs":[],"stateMutability":"nonpayable"},{"type":"function","name":"name","inputs":[],"outputs":[{"name":"","type":"string","internalType":"string"}],"stateMutability":"view"},{"type":"function","name":"releaseVestedTokens","inputs":[],"outputs":[],"stateMutability":"nonpayable"},{"type":"function","name":"remainingSupply","inputs":[],"outputs":[{"name":"","type":"uint256","internalType":"uint256"}],"stateMutability":"view"},{"type":"function","name":"renounceRole","inputs":[{"name":"role","type":"bytes32","internalType":"bytes32"},{"name":"callerConfirmation","type":"address","internalType":"address"}],"outputs":[],"stateMutability":"nonpayable"},{"type":"function","name":"revokeRole","inputs":[{"name":"role","type":"bytes32","internalType":"bytes32"},{"name":"account","type":"address","internalType":"address"}],"outputs":[],"stateMutability":"nonpayable"},{"type":"function","name":"revokeVesting","inputs":[{"name":"_beneficiary","type":"address","internalType":"address"}],"outputs":[],"stateMutability":"nonpayable"},{"type":"function","name":"supportsInterface","inputs":[{"name":"interfaceId","type":"bytes4","internalType":"bytes4"}],"outputs":[{"name":"","type":"bool","internalType":"bool"}],"stateMutability":"view"},{"type":"function","name":"symbol","inputs":[],"outputs":[{"name":"","type":"string","internalType":"string"}],"stateMutability":"view"},{"type":"function","name":"totalMinted","inputs":[],"outputs":[{"name":"","type":"uint256","internalType":"uint256"}],"stateMutability":"view"},{"type":"function","name":"totalSupply","inputs":[],"outputs":[{"name":"","type":"uint256","internalType":"uint256"}],"stateMutability":"view"},{"type":"function","name":"transfer","inputs":[{"name":"to","type":"address","internalType":"address"},{"name":"value","type":"uint256","internalType":"uint256"}],"outputs":[{"name":"","type":"bool","internalType":"bool"}],"stateMutability":"nonpayable"},{"type":"function","name":"transferFrom","inputs":[{"name":"from","type":"address","internalType":"address"},{"name":"to","type":"address","internalType":"address"},{"name":"value","type":"uint256","internalType":"uint256"}],"outputs":[{"name":"","type":"bool","internalType":"bool"}],"stateMutability":"nonpayable"},{"type":"function","name":"vestingSchedules","inputs":[{"name":"","type":"address","internalType":"address"}],"outputs":[{"name":"totalAmount","type":"uint256","internalType":"uint256"},{"name":"releasedAmount","type":"uint256","internalType":"uint256"},{"name":"startTime","type":"uint256","internalType":"uint256"},{"name":"cliffDuration","type":"uint256","internalType":"uint256"},{"name":"vestingDuration","type":"uint256","internalType":"uint256"},{"name":"revocable","type":"bool","internalType":"bool"}],"stateMutability":"view"},{"type":"event","name":"Approval","inputs":[{"name":"owner","type":"address","indexed":true,"internalType":"address"},{"name":"spender","type":"address","indexed":true,"internalType":"address"},{"name":"value","type":"uint256","indexed":false,"internalType":"uint256"}],"anonymous":false},{"type":"event","name":"RoleAdminChanged","inputs":[{"name":"role","type":"bytes32","indexed":true,"internalType":"bytes32"},{"name":"previousAdminRole","type":"bytes32","indexed":true,"internalType":"bytes32"},{"name":"newAdminRole","type":"bytes32","indexed":true,"internalType":"bytes32"}],"anonymous":false},{"type":"event","name":"RoleGranted","inputs":[{"name":"role","type":"bytes32","indexed":true,"internalType":"bytes32"},{"name":"account","type":"address","indexed":true,"internalType":"address"},{"name":"sender","type":"address","indexed":true,"internalType":"address"}],"anonymous":false},{"type":"event","name":"RoleRevoked","inputs":[{"name":"role","type":"bytes32","indexed":true,"internalType":"bytes32"},{"name":"account","type":"address","indexed":true,"internalType":"address"},{"name":"sender","type":"address","indexed":true,"internalType":"address"}],"anonymous":false},{"type":"event","name":"TokensMinted","inputs":[{"name":"to","type":"address","indexed":true,"internalType":"address"},{"name":"amount","type":"uint256","indexed":false,"internalType":"uint256"},{"name":"category","type":"string","indexed":false,"internalType":"string"}],"anonymous":false},{"type":"event","name":"TokensReleased","inputs":[{"name":"beneficiary","type":"address","indexed":true,"internalType":"address"},{"name":"amount","type":"uint256","indexed":false,"internalType":"uint256"}],"anonymous":false},{"type":"event","name":"Transfer","inputs":[{"name":"from","type":"address","indexed":true,"internalType":"address"},{"name":"to","type":"address","indexed":true,"internalType":"address"},{"name":"value","type":"uint256","indexed":false,"internalType":"uint256"}],"anonymous":false},{"type":"event","name":"VestingCreated","inputs":[{"name":"beneficiary","type":"address","indexed":true,"internalType":"address"},{"name":"amount","type":"uint256","indexed":false,"internalType":"uint256"},{"name":"startTime","type":"uint256","indexed":false,"internalType":"uint256"}],"anonymous":false},{"type":"event","name":"VestingRevoked","inputs":[{"name":"beneficiary","type":"address","indexed":true,"internalType":"address"},{"name":"unreleased","type":"uint256","indexed":false,"internalType":"uint256"}],"anonymous":false},{"type":"error","name":"AccessControlBadConfirmation","inputs":[]},{"type":"error","name":"AccessControlUnauthorizedAccount","inputs":[{"name":"account","type":"address","internalType":"address"},{"name":"neededRole","type":"bytes32","internalType":"bytes32"}]},{"type":"error","name":"ERC20InsufficientAllowance","inputs":[{"name":"spender","type":"address","internalType":"address"},{"name":"allowance","type":"uint256","internalType":"uint256"},{"name":"needed","type":"uint256","internalType":"uint256"}]},{"type":"error","name":"ERC20InsufficientBalance","inputs":[{"name":"sender","type":"address","internalType":"address"},{"name":"balance","type":"uint256","internalType":"uint256"},{"name":"needed","type":"uint256","internalType":"uint256"}]},{"type":"error","name":"ERC20InvalidApprover","inputs":[{"name":"approver","type":"address","internalType":"address"}]},{"type":"error","name":"ERC20InvalidReceiver","inputs":[{"name":"receiver","type":"address","internalType":"address"}]},{"type":"error","name":"ERC20InvalidSender","inputs":[{"name":"sender","type":"address","internalType":"address"}]},{"type":"error","name":"ERC20InvalidSpender","inputs":[{"name":"spender","type":"address","internalType":"address"}]}],"bytecode":{"object":"0x608060405234610027576100116101fd565b61001961002c565b612ed46106f98239612ed490f35b610032565b60405190565b5f80fd5b601f801991011690565b634e487b7160e01b5f52604160045260245ffd5b9061005e90610036565b810190811060018060401b0382111761007657604052565b610040565b9061008e61008761002c565b9283610054565b565b60018060401b0381116100ac576100a8602091610036565b0190565b610040565b906100c36100be83610090565b61007b565b918252565b5f7f584d5553494320546f6b656e0000000000000000000000000000000000000000910152565b6100f9600c6100b1565b90610106602083016100c8565b565b6101106100ef565b90565b5f7f584d000000000000000000000000000000000000000000000000000000000000910152565b61014460026100b1565b9061015160208301610113565b565b61015b61013a565b90565b90565b90565b5f1b90565b61017d6101786101829261015e565b610164565b610161565b90565b61018e5f610169565b90565b7f9f2df0fed2c77648de5860a4cc508cd0818c85b8b8a1ab4ceeef8d981c8956a690565b7f3c11d16cbaffd01df69ce1c404f6340ee057498f5f00246190ea54220576a84890565b7f65d7a28e3265b37a6474929f336521b332c1681b933f6cb9f3376673440d862a90565b610216610208610108565b610210610153565b90610264565b610228610221610185565b33906105e5565b5061023b610234610191565b33906105e5565b5061024e6102476101b5565b33906105e5565b5061026161025a6101d9565b33906105e5565b50565b9061026e91610270565b565b9061027a9161027c565b565b9061028691610288565b565b9061029291610294565b565b9061029e91610503565b565b5190565b634e487b7160e01b5f52602260045260245ffd5b90600160028304921680156102d8575b60208310146102d357565b6102a4565b91607f16916102c8565b5f5260205f2090565b601f602091010490565b1b90565b9190600861031491029161030e5f19846102f5565b926102f5565b9181191691161790565b90565b90565b61033861033361033d9261031e565b610321565b61031e565b90565b90565b919061035961035461036193610324565b610340565b9083546102f9565b9055565b5f90565b61037b91610375610365565b91610343565b565b5f5b82811061038b57505050565b8061039a5f6001938501610369565b0161037f565b9190601f81116103b0575b505050565b8181116103bd575b6103ab565b6103d26103cc6103f0946102e2565b916102eb565b9160206103de826102eb565b91106103f8575b80910191039061037d565b5f80806103b8565b505f6103e5565b1c90565b90610413905f19906008026103ff565b191690565b8161042291610403565b906002021790565b90610434816102a0565b9060018060401b0382116104f2576104568261045085546102b8565b856103a0565b602090601f831160011461048a57918091610479935f9261047e575b5050610418565b90555b565b90915001515f80610472565b601f19831691610499856102e2565b925f5b8181106104da575091600293918560019694106104c0575b5050500201905561047c565b6104d0910151601f841690610403565b90555f80806104b4565b9193602060018192878701518155019501920161049c565b610040565b906105019161042a565b565b906105126105199260036104f7565b60046104f7565b565b5f90565b151590565b61052d90610161565b90565b9061053a90610524565b5f5260205260405f2090565b60018060a01b031690565b61056561056061056a92610546565b610321565b610546565b90565b61057690610551565b90565b6105829061056d565b90565b9061058f90610579565b5f5260205260405f2090565b906105a760ff91610164565b9181191691161790565b6105ba9061051f565b90565b90565b906105d56105d06105dc926105b1565b6105bd565b825461059b565b9055565b5f0190565b6105ed61051b565b506106026105fc8284906106bd565b1561051f565b5f1461068b5761062a60016106255f61061d60058690610530565b018590610585565b6105c0565b906106336106eb565b9061067061066a6106647f2f8788117e7eff1d82e926ec794901d17c78024a50270940304540a733656f0d95610524565b92610579565b92610579565b9261067961002c565b80610683816105e0565b0390a4600190565b50505f90565b5f1c90565b60ff1690565b6106a86106ad91610691565b610696565b90565b6106ba905461069c565b90565b6106e4915f6106d96106df936106d161051b565b506005610530565b01610585565b6106b0565b90565b5f90565b6106f36106e7565b50339056fe60806040526004361015610013575b611330565b61001d5f3561025c565b806301ffc9a71461025757806306fdde0314610252578063095ea7b31461024d57806318160ddd146102485780631cfe31c21461024357806323b872dd1461023e578063248a9ca31461023957806326855d6914610234578063282c51f31461022f5780632861c7d11461022a5780632afd1a7d146102255780632f2ff15d14610220578063313ce5671461021b57806332cb6b0c1461021657806336568abe1461021157806337f9fbdd1461020c5780633b0da2601461020757806342966c68146102025780634581d3cd146101fd57806354dd1da4146101f857806370a08231146101f357806379cc6790146101ee57806391d14854146101e957806395d89b41146101e4578063a217fddf146101df578063a2309ff8146101da578063a470d39a146101d5578063a9059cbb146101d0578063d381f212146101cb578063d3fc9864146101c6578063d5391393146101c1578063d547741f146101bc578063da0239a6146101b7578063dd62ed3e146101b2578063e63ab1e9146101ad5763fdb20ccb0361000e576112f4565b611173565b61110e565b6110ac565b611078565b611043565b610fe0565b610f5a565b610f0b565b610ed6565b610e69565b610df8565b610d88565b610d52565b610d1e565b610ce9565b610cb6565b610c81565b610c16565b610bc5565b610b8e565b61096e565b610939565b6108c3565b610867565b610805565b6107b2565b610745565b6106df565b61062c565b610590565b610521565b6104b1565b610459565b610397565b6102e8565b60e01c90565b60405190565b5f80fd5b5f80fd5b5f80fd5b63ffffffff60e01b1690565b61028981610274565b0361029057565b5f80fd5b905035906102a182610280565b565b906020828203126102bc576102b9915f01610294565b90565b61026c565b151590565b6102cf906102c1565b9052565b91906102e6905f602085019401906102c6565b565b34610318576103146103036102fe3660046102a3565b611338565b61030b610262565b918291826102d3565b0390f35b610268565b5f91031261032757565b61026c565b5190565b60209181520190565b90825f9392825e0152565b601f801991011690565b61036d61037660209361037b936103648161032c565b93848093610330565b95869101610339565b610344565b0190565b6103949160208201915f81840391015261034e565b90565b346103c7576103a736600461031d565b6103c36103b2611494565b6103ba610262565b9182918261037f565b0390f35b610268565b60018060a01b031690565b6103e0906103cc565b90565b6103ec816103d7565b036103f357565b5f80fd5b90503590610404826103e3565b565b90565b61041281610406565b0361041957565b5f80fd5b9050359061042a82610409565b565b91906040838203126104545780610448610451925f86016103f7565b9360200161041d565b90565b61026c565b3461048a5761048661047561046f36600461042c565b906114aa565b61047d610262565b918291826102d3565b0390f35b610268565b61049890610406565b9052565b91906104af905f6020850194019061048f565b565b346104e1576104c136600461031d565b6104dd6104cc6114d0565b6104d4610262565b9182918261049c565b0390f35b610268565b90565b90565b6105006104fb610505926104e6565b6104e9565b610406565b90565b610513610fa06104ec565b90565b61051e610508565b90565b346105515761053136600461031d565b61054d61053c610516565b610544610262565b9182918261049c565b0390f35b610268565b909160608284031261058b57610588610571845f85016103f7565b9361057f81602086016103f7565b9360400161041d565b90565b61026c565b346105c1576105bd6105ac6105a6366004610556565b916114e6565b6105b4610262565b918291826102d3565b0390f35b610268565b90565b6105d2816105c6565b036105d957565b5f80fd5b905035906105ea826105c9565b565b9060208282031261060557610602915f016105dd565b90565b61026c565b610613906105c6565b9052565b919061062a905f6020850194019061060a565b565b3461065c576106586106476106423660046105ec565b61155f565b61064f610262565b91829182610617565b0390f35b610268565b61066a816102c1565b0361067157565b5f80fd5b9050359061068282610661565b565b919060a0838203126106d55761069c815f85016103f7565b926106aa826020830161041d565b926106d26106bb846040850161041d565b936106c9816060860161041d565b93608001610675565b90565b61026c565b5f0190565b34610711576106fb6106f2366004610684565b93929092611b6b565b610703610262565b8061070d816106da565b0390f35b610268565b7f3c11d16cbaffd01df69ce1c404f6340ee057498f5f00246190ea54220576a84890565b610742610716565b90565b346107755761075536600461031d565b61077161076061073a565b610768610262565b91829182610617565b0390f35b610268565b90565b61079161078c6107969261077a565b6104e9565b610406565b90565b6107a46103e861077d565b90565b6107af610799565b90565b346107e2576107c236600461031d565b6107de6107cd6107a7565b6107d5610262565b9182918261049c565b0390f35b610268565b90602082820312610800576107fd915f016103f7565b90565b61026c565b346108355761083161082061081b3660046107e7565b611b7d565b610828610262565b9182918261049c565b0390f35b610268565b9190604083820312610862578061085661085f925f86016105dd565b936020016103f7565b90565b61026c565b346108965761088061087a36600461083a565b90611bfe565b610888610262565b80610892816106da565b0390f35b610268565b60ff1690565b6108aa9061089b565b9052565b91906108c1905f602085019401906108a1565b565b346108f3576108d336600461031d565b6108ef6108de611c2d565b6108e6610262565b918291826108ae565b0390f35b610268565b90565b61090f61090a610914926108f8565b6104e9565b610406565b90565b61092b6a52b7d2dcc80cd2e40000006108fb565b90565b610936610917565b90565b346109695761094936600461031d565b61096561095461092e565b61095c610262565b9182918261049c565b0390f35b610268565b3461099d5761098761098136600461083a565b90611c43565b61098f610262565b80610999816106da565b0390f35b610268565b5f80fd5b5f80fd5b5f80fd5b909182601f830112156109e85781359167ffffffffffffffff83116109e35760200192602083028401116109de57565b6109aa565b6109a6565b6109a2565b909182601f83011215610a275781359167ffffffffffffffff8311610a22576020019260208302840111610a1d57565b6109aa565b6109a6565b6109a2565b5f80fd5b634e487b7160e01b5f52604160045260245ffd5b90610a4e90610344565b810190811067ffffffffffffffff821117610a6857604052565b610a30565b90610a80610a79610262565b9283610a44565b565b67ffffffffffffffff8111610aa057610a9c602091610344565b0190565b610a30565b90825f939282370152565b90929192610ac5610ac082610a82565b610a6d565b93818552602085019082840111610ae157610adf92610aa5565b565b610a2c565b9080601f83011215610b0457816020610b0193359101610ab0565b90565b6109a2565b90606082820312610b89575f82013567ffffffffffffffff8111610b845781610b339184016109ae565b929093602082013567ffffffffffffffff8111610b7f5783610b569184016109ed565b929093604082013567ffffffffffffffff8111610b7a57610b779201610ae6565b90565b610270565b610270565b610270565b61026c565b34610bc057610baa610ba1366004610b09565b93929092611fa7565b610bb2610262565b80610bbc816106da565b0390f35b610268565b34610bf357610bdd610bd83660046107e7565b612202565b610be5610262565b80610bef816106da565b0390f35b610268565b90602082820312610c1157610c0e915f0161041d565b90565b61026c565b34610c4457610c2e610c29366004610bf8565b612233565b610c36610262565b80610c40816106da565b0390f35b610268565b90565b610c60610c5b610c6592610c49565b6104e9565b610406565b90565b610c736105dc610c4c565b90565b610c7e610c68565b90565b34610cb157610c9136600461031d565b610cad610c9c610c76565b610ca4610262565b9182918261049c565b0390f35b610268565b34610ce457610cc636600461031d565b610cce6122c0565b610cd6610262565b80610ce0816106da565b0390f35b610268565b34610d1957610d15610d04610cff3660046107e7565b6123af565b610d0c610262565b9182918261049c565b0390f35b610268565b34610d4d57610d37610d3136600461042c565b906123f5565b610d3f610262565b80610d49816106da565b0390f35b610268565b34610d8357610d7f610d6e610d6836600461083a565b90612417565b610d76610262565b918291826102d3565b0390f35b610268565b34610db857610d9836600461031d565b610db4610da3612441565b610dab610262565b9182918261037f565b0390f35b610268565b90565b5f1b90565b610dd9610dd4610dde92610dbd565b610dc0565b6105c6565b90565b610dea5f610dc5565b90565b610df5610de1565b90565b34610e2857610e0836600461031d565b610e24610e13610ded565b610e1b610262565b91829182610617565b0390f35b610268565b1c90565b90565b610e44906008610e499302610e2d565b610e31565b90565b90610e579154610e34565b90565b610e6660065f90610e4c565b90565b34610e9957610e7936600461031d565b610e95610e84610e5a565b610e8c610262565b9182918261049c565b0390f35b610268565b90565b610eb5610eb0610eba92610e9e565b6104e9565b610406565b90565b610ec86107d0610ea1565b90565b610ed3610ebd565b90565b34610f0657610ee636600461031d565b610f02610ef1610ecb565b610ef9610262565b9182918261049c565b0390f35b610268565b34610f3c57610f38610f27610f2136600461042c565b90612457565b610f2f610262565b918291826102d3565b0390f35b610268565b610f4c6105dc610c4c565b90565b610f57610f41565b90565b34610f8a57610f6a36600461031d565b610f86610f75610f4f565b610f7d610262565b9182918261049c565b0390f35b610268565b91606083830312610fdb57610fa6825f85016103f7565b92610fb4836020830161041d565b92604082013567ffffffffffffffff8111610fd657610fd39201610ae6565b90565b610270565b61026c565b3461100f57610ff9610ff3366004610f8f565b9161257c565b611001610262565b8061100b816106da565b0390f35b610268565b7f9f2df0fed2c77648de5860a4cc508cd0818c85b8b8a1ab4ceeef8d981c8956a690565b611040611014565b90565b346110735761105336600461031d565b61106f61105e611038565b611066610262565b91829182610617565b0390f35b610268565b346110a75761109161108b36600461083a565b906125b3565b611099610262565b806110a3816106da565b0390f35b610268565b346110dc576110bc36600461031d565b6110d86110c76125bf565b6110cf610262565b9182918261049c565b0390f35b610268565b919060408382031261110957806110fd611106925f86016103f7565b936020016103f7565b90565b61026c565b3461113f5761113b61112a6111243660046110e1565b906125fc565b611132610262565b9182918261049c565b0390f35b610268565b7f65d7a28e3265b37a6474929f336521b332c1681b933f6cb9f3376673440d862a90565b611170611144565b90565b346111a35761118336600461031d565b61119f61118e611168565b611196610262565b91829182610617565b0390f35b610268565b6111bc6111b76111c1926103cc565b6104e9565b6103cc565b90565b6111cd906111a8565b90565b6111d9906111c4565b90565b906111e6906111d0565b5f5260205260405f2090565b5f1c90565b611203611208916111f2565b610e31565b90565b61121590546111f7565b90565b60ff1690565b61122a61122f916111f2565b611218565b90565b61123c905461121e565b90565b61124a9060076111dc565b906112565f830161120b565b916112636001820161120b565b916112706002830161120b565b9161127d6003820161120b565b91611296600561128f6004850161120b565b9301611232565b90565b91946112e16112eb929897956112d760a0966112cd6112f29a6112c360c08a019e5f8b019061048f565b602089019061048f565b604087019061048f565b606085019061048f565b608083019061048f565b01906102c6565b565b3461132b5761132761130f61130a3660046107e7565b61123f565b9261131e969496929192610262565b96879687611299565b0390f35b610268565b5f80fd5b5f90565b611340611334565b508061135b611355637965db0b60e01b610274565b91610274565b14908115611368575b5090565b6113729150612624565b5f611364565b606090565b634e487b7160e01b5f52602260045260245ffd5b90600160028304921680156113b1575b60208310146113ac57565b61137d565b91607f16916113a1565b60209181520190565b5f5260205f2090565b905f92918054906113e76113e083611391565b80946113bb565b916001811690815f1461143e5750600114611402575b505050565b61140f91929394506113c4565b915f925b81841061142657505001905f80806113fd565b60018160209295939554848601520191019290611413565b92949550505060ff19168252151560200201905f80806113fd565b90611463916113cd565b90565b9061148661147f92611476610262565b93848092611459565b0383610a44565b565b61149190611466565b90565b61149c611378565b506114a76003611488565b90565b6114c7916114b6611334565b506114bf61264e565b91909161265b565b600190565b5f90565b6114d86114cc565b506114e3600261120b565b90565b91611510926114f3611334565b506115086114ff61264e565b829084916126b8565b919091612759565b600190565b5f90565b611522906105c6565b90565b9061152f90611519565b5f5260205260405f2090565b90565b61154a61154f916111f2565b61153b565b90565b61155c905461153e565b90565b600161157861157e92611570611515565b506005611525565b01611552565b90565b9061159e94939291611599611594611014565b6127f6565b6119d4565b565b6115b46115af6115b992610dbd565b6104e9565b6103cc565b90565b6115c5906115a0565b90565b5f7f496e76616c696420616464726573730000000000000000000000000000000000910152565b6115fc600f602092610330565b611605816115c8565b0190565b61161e9060208101905f8183039101526115ef565b90565b1561162857565b611630610262565b62461bcd60e51b81528061164660048201611609565b0390fd5b61165e61165961166392610dbd565b6104e9565b610406565b90565b5f7f496e76616c696420616d6f756e74000000000000000000000000000000000000910152565b61169a600e602092610330565b6116a381611666565b0190565b6116bc9060208101905f81830391015261168d565b90565b156116c657565b6116ce610262565b62461bcd60e51b8152806116e4600482016116a7565b0390fd5b5f7f56657374696e6720657869737473000000000000000000000000000000000000910152565b61171c600e602092610330565b611725816116e8565b0190565b61173e9060208101905f81830391015261170f565b90565b1561174857565b611750610262565b62461bcd60e51b81528061176660048201611729565b0390fd5b634e487b7160e01b5f52601160045260245ffd5b61178d61179391939293610406565b92610406565b820180921161179e57565b61176a565b5f7f45786365656473206d617820737570706c790000000000000000000000000000910152565b6117d76012602092610330565b6117e0816117a3565b0190565b6117f99060208101905f8183039101526117ca565b90565b1561180357565b61180b610262565b62461bcd60e51b815280611821600482016117e4565b0390fd5b906118315f1991610dc0565b9181191691161790565b61184f61184a61185492610406565b6104e9565b610406565b90565b90565b9061186f61186a6118769261183b565b611857565b8254611825565b9055565b611883906111c4565b90565b61189060c0610a6d565b90565b9061189d90610406565b9052565b906118ab906102c1565b9052565b6118b99051610406565b90565b6118c690516102c1565b90565b906118d560ff91610dc0565b9181191691161790565b6118e8906102c1565b90565b90565b906119036118fe61190a926118df565b6118eb565b82546118c9565b9055565b9061199d60a060056119a3946119315f820161192b5f88016118af565b9061185a565b61194a60018201611944602088016118af565b9061185a565b6119636002820161195d604088016118af565b9061185a565b61197c60038201611976606088016118af565b9061185a565b6119956004820161198f608088016118af565b9061185a565b0192016118bc565b906118ee565b565b906119af9161190e565b565b9160206119d29294936119cb60408201965f83019061048f565b019061048f565b565b92611b2692611b0c5f9396611b03611b1594611a0b89611a046119fe6119f98b6115bc565b6103d7565b916103d7565b1415611621565b611a278a611a21611a1b8a61164a565b91610406565b116116bf565b611a58611a4088611a3a60078d906111dc565b0161120b565b611a52611a4c8a61164a565b91610406565b14611741565b611a8f611a6f611a68600661120b565b8c9061177e565b611a88611a82611a7d610917565b610406565b91610406565b11156117fc565b611aac611aa58b611aa0600661120b565b61177e565b600661185a565b611abf611ab83061187a565b8b9061280a565b611afa8a95611af1611ae88a611ae3429496989a611adb611886565b9d8e01611893565b61164a565b60208b01611893565b60408901611893565b60608701611893565b60808501611893565b60a083016118a1565b611b21600784906111dc565b6119a5565b42611b517f9ade76f4385de306666dfb21a52b27d52db0fde8ad0f515fa261f532cac60d21926111d0565b92611b66611b5d610262565b928392836119b1565b0390a2565b90611b7894939291611581565b565b90565b611b94611b9991611b8c6114cc565b5060076111dc565b611b7a565b611ba45f820161120b565b611bb6611bb05f61164a565b91610406565b14611bc757611bc4906128d3565b90565b50611bd15f61164a565b90565b90611bef91611bea611be58261155f565b6127f6565b611bf1565b565b90611bfb916129d5565b50565b90611c0891611bd4565b565b5f90565b90565b611c25611c20611c2a92611c0e565b6104e9565b61089b565b90565b611c35611c0a565b50611c406012611c11565b90565b9080611c5e611c58611c5361264e565b6103d7565b916103d7565b03611c6f57611c6c91612a81565b50565b5f63334bd91960e11b815280611c87600482016106da565b0390fd5b90611ca894939291611ca3611c9e611014565b6127f6565b611dc1565b565b5090565b5090565b5f7f4c656e677468206d69736d617463680000000000000000000000000000000000910152565b611ce6600f602092610330565b611cef81611cb2565b0190565b611d089060208101905f818303910152611cd9565b90565b15611d1257565b611d1a610262565b62461bcd60e51b815280611d3060048201611cf3565b0390fd5b6001611d409101610406565b90565b634e487b7160e01b5f52603260045260245ffd5b9190811015611d67576020020190565b611d43565b35611d7681610409565b90565b9190811015611d89576020020190565b611d43565b35611d98816103e3565b90565b91611dbe92611db160408201935f83019061048f565b602081840391015261034e565b90565b9394909294611df6611dd4868690611caa565b611df0611dea611de5878b90611cae565b610406565b91610406565b14611d0b565b611dfe6114cc565b93611e085f61164a565b945b85611e27611e21611e1c888c90611cae565b610406565b91610406565b1015611e5a57611e4e611e5491611e48611e43888c8b91611d57565b611d6c565b9061177e565b95611d34565b94611e0a565b611e96919396929550611e7690611e71600661120b565b61177e565b611e8f611e89611e84610917565b610406565b91610406565b11156117fc565b611e9f5f61164a565b5b80611ebd611eb7611eb2858790611caa565b610406565b91610406565b1015611f9e57611f9990611ef7611ef0611ee1611edc888c8691611d57565b611d6c565b611eeb600661120b565b61177e565b600661185a565b611f28611f0e611f0985878591611d79565b611d8e565b611f22611f1d888c8691611d57565b611d6c565b9061280a565b611f3c611f3784868491611d79565b611d8e565b611f50611f4b878b8591611d57565b611d6c565b9087611f7c7f9d89e36eadf856db0ad9ffb5a569e07f95634dddd9501141ecf04820484ad0dc926111d0565b92611f91611f88610262565b92839283611d9b565b0390a2611d34565b611ea0565b50505050509050565b90611fb494939291611c8b565b565b611fcf90611fca611fc5610de1565b6127f6565b6120fa565b565b5f7f4e6f74207265766f6361626c6500000000000000000000000000000000000000910152565b612005600d602092610330565b61200e81611fd1565b0190565b6120279060208101905f818303910152611ff8565b90565b1561203157565b612039610262565b62461bcd60e51b81528061204f60048201612012565b0390fd5b5f7f4e6f2076657374696e6700000000000000000000000000000000000000000000910152565b612087600a602092610330565b61209081612053565b0190565b6120a99060208101905f81830391015261207a565b90565b156120b357565b6120bb610262565b62461bcd60e51b8152806120d160048201612094565b0390fd5b6120e46120ea91939293610406565b92610406565b82039182116120f557565b61176a565b61210e612109600783906111dc565b611b7a565b9061212361211e60058401611232565b61202a565b6121496121315f840161120b565b61214361213d5f61164a565b91610406565b116120ac565b61218e61216c61215a5f850161120b565b6121666001860161120b565b906120d5565b9261218461217c6001830161120b565b5f830161185a565b60055f91016118ee565b6121a161219a3061187a565b8390612b23565b6121be6121b7836121b2600661120b565b6120d5565b600661185a565b6121fd6121eb7f57c76f5e278bfbd4eeb5207d287aa5a1a9e1113c65f7eefa540e379a2774d13b926111d0565b926121f4610262565b9182918261049c565b0390a2565b61220b90611fb6565b565b6122269061222161221c610716565b6127f6565b612228565b565b61223190612b82565b565b61223c9061220d565b565b5f7f4e6f20746f6b656e7320746f2072656c65617365000000000000000000000000910152565b6122726014602092610330565b61227b8161223e565b0190565b6122949060208101905f818303910152612265565b90565b1561229e57565b6122a6610262565b62461bcd60e51b8152806122bc6004820161227f565b0390fd5b6122d46122cf600733906111dc565b611b7a565b6122fa6122e25f830161120b565b6122f46122ee5f61164a565b91610406565b116120ac565b612340612306826128d3565b916123238361231d6123175f61164a565b91610406565b11612297565b61233a6001849201916123358361120b565b61177e565b9061185a565b61235461234c3061187a565b338391612759565b336123946123827fc7798891864187665ac6dd119286e44ec13f014527aeeb2b8eb3fd413df93179926111d0565b9261238b610262565b9182918261049c565b0390a2565b906123a3906111d0565b5f5260205260405f2090565b6123c56123ca916123be6114cc565b505f612399565b61120b565b90565b906123e7916123e26123dd610716565b6127f6565b6123e9565b565b906123f391612b95565b565b906123ff916123cd565b565b9061240b906111d0565b5f5260205260405f2090565b61243e915f6124336124399361242b611334565b506005611525565b01612401565b611232565b90565b612449611378565b506124546004611488565b90565b61247491612463611334565b5061246c61264e565b919091612759565b600190565b90612494929161248f61248a611014565b6127f6565b612496565b565b6124bb816124b46124ae6124a95f6115bc565b6103d7565b916103d7565b1415611621565b6124d7826124d16124cb5f61164a565b91610406565b116116bf565b61250e6124ee6124e7600661120b565b849061177e565b6125076125016124fc610917565b610406565b91610406565b11156117fc565b61252b6125248361251f600661120b565b61177e565b600661185a565b61253681839061280a565b90916125627f9d89e36eadf856db0ad9ffb5a569e07f95634dddd9501141ecf04820484ad0dc926111d0565b9261257761256e610262565b92839283611d9b565b0390a2565b906125879291612479565b565b906125a49161259f61259a8261155f565b6127f6565b6125a6565b565b906125b091612a81565b50565b906125bd91612589565b565b6125c76114cc565b506125e36125d3610917565b6125dd600661120b565b906120d5565b90565b906125f0906111d0565b5f5260205260405f2090565b6126219161261761261c9261260f6114cc565b5060016125e6565b612399565b61120b565b90565b61262c611334565b506126466126406301ffc9a760e01b610274565b91610274565b1490565b5f90565b61265661264a565b503390565b916126699291600192612bb4565b565b612674906103d7565b9052565b6040906126a16126a8949695939661269760608401985f85019061266b565b602083019061048f565b019061048f565b565b906126b59103610406565b90565b9291926126c68183906125fc565b90816126db6126d55f19610406565b91610406565b036126e8575b5050509050565b816126fb6126f587610406565b91610406565b106127215761271893946127109193926126aa565b905f92612bb4565b805f80806126e1565b50612740849291925f938493637dc7a0d960e11b855260048501612678565b0390fd5b9190612757905f6020850194019061266b565b565b918261277561276f61276a5f6115bc565b6103d7565b916103d7565b146127cf578161279561278f61278a5f6115bc565b6103d7565b916103d7565b146127a8576127a692919091612cd1565b565b6127cb6127b45f6115bc565b5f91829163ec442f0560e01b835260048301612744565b0390fd5b6127f26127db5f6115bc565b5f918291634b637e8f60e11b835260048301612744565b0390fd5b6128089061280261264e565b90612e63565b565b8061282561281f61281a5f6115bc565b6103d7565b916103d7565b146128415761283f916128375f6115bc565b919091612cd1565b565b61286461284d5f6115bc565b5f91829163ec442f0560e01b835260048301612744565b0390fd5b61287761287d91939293610406565b92610406565b91612889838202610406565b92818404149015171561289857565b61176a565b634e487b7160e01b5f52601260045260245ffd5b6128bd6128c391610406565b91610406565b9081156128ce570490565b61289d565b6128db6114cc565b504261290f6129096129046128f26002860161120b565b6128fe6003870161120b565b9061177e565b610406565b91610406565b106129c8574261294761294161293c61292a6002860161120b565b6129366004870161120b565b9061177e565b610406565b91610406565b10156129a4576129a19061299b60016129946129826129724261296c6002880161120b565b906120d5565b61297d5f870161120b565b612868565b61298e6004860161120b565b906128b1565b920161120b565b906120d5565b90565b806129bf60016129b85f6129c5950161120b565b920161120b565b906120d5565b90565b506129d25f61164a565b90565b6129dd611334565b506129f26129ec828490612417565b156102c1565b5f14612a7b57612a1a6001612a155f612a0d60058690611525565b018590612401565b6118ee565b90612a2361264e565b90612a60612a5a612a547f2f8788117e7eff1d82e926ec794901d17c78024a50270940304540a733656f0d95611519565b926111d0565b926111d0565b92612a69610262565b80612a73816106da565b0390a4600190565b50505f90565b612a89611334565b50612a95818390612417565b5f14612b1d57612abc5f612ab75f612aaf60058690611525565b018590612401565b6118ee565b90612ac561264e565b90612b02612afc612af67ff6391f5c32d9c69d2a47ea670b442974b53935d1edc7fd64eb21e047a839171b95611519565b926111d0565b926111d0565b92612b0b610262565b80612b15816106da565b0390a4600190565b50505f90565b9081612b3f612b39612b345f6115bc565b6103d7565b916103d7565b14612b5b57612b599190612b525f6115bc565b9091612cd1565b565b612b7e612b675f6115bc565b5f918291634b637e8f60e11b835260048301612744565b0390fd5b612b9390612b8e61264e565b612b23565b565b90612bb291612bad81612ba661264e565b84916126b8565b612b23565b565b909281612bd1612bcb612bc65f6115bc565b6103d7565b916103d7565b14612c9c5783612bf1612beb612be65f6115bc565b6103d7565b916103d7565b14612c7557612c1583612c10612c09600186906125e6565b8790612399565b61185a565b612c1f575b505050565b919091612c6a612c58612c527f8c5be1e5ebec7d5bd14f71427d1e84f3dd0314c0f7b2291e5b200ac8c7c3b925936111d0565b936111d0565b93612c61610262565b9182918261049c565b0390a35f8080612c1a565b612c98612c815f6115bc565b5f918291634a1406b160e11b835260048301612744565b0390fd5b612cbf612ca85f6115bc565b5f91829163e602df0560e01b835260048301612744565b0390fd5b90612cce9101610406565b90565b91909180612cef612ce9612ce45f6115bc565b6103d7565b916103d7565b145f14612dd057612d13612d0c83612d07600261120b565b61177e565b600261185a565b5b82612d2f612d29612d245f6115bc565b6103d7565b916103d7565b145f14612da457612d53612d4c83612d47600261120b565b6126aa565b600261185a565b5b919091612d9f612d8d612d877fddf252ad1be2c89b69c2b068fc378daa952ba7f163c4a11628f55a4df523b3ef936111d0565b936111d0565b93612d96610262565b9182918261049c565b0390a3565b612dcb82612dc5612db65f8790612399565b91612dc08361120b565b612cc3565b9061185a565b612d54565b612de3612dde5f8390612399565b61120b565b80612df6612df085610406565b91610406565b10612e1e57612e09612e199184906126aa565b612e145f8490612399565b61185a565b612d14565b90612e3c9091925f93849363391434e360e21b855260048501612678565b0390fd5b916020612e61929493612e5a60408201965f83019061266b565b019061060a565b565b90612e78612e72838390612417565b156102c1565b612e80575050565b612e9a5f92839263e2517d3f60e01b845260048401612e40565b0390fdfea264697066735822122071ea910b1b4cb242bd0b9c4b74a515b26afdb553ef49fbf1549eaea653c55ac964736f6c63430008210033","linkReferences":{}},"methodIdentifiers":{"BURNER_ROLE()":"282c51f3","COMMUNITY_REWARDS()":"1cfe31c2","DEFAULT_ADMIN_ROLE()":"a217fddf","ECOSYSTEM()":"d381f212","INVESTORS()":"4581d3cd","LIQUIDITY()":"2861c7d1","MAX_SUPPLY()":"32cb6b0c","MINTER_ROLE()":"d5391393","PAUSER_ROLE()":"e63ab1e9","TEAM_ADVISORS()":"a470d39a","allowance(address,address)":"dd62ed3e","approve(address,uint256)":"095ea7b3","balanceOf(address)":"70a08231","batchMint(address[],uint256[],string)":"37f9fbdd","burn(uint256)":"42966c68","burnFrom(address,uint256)":"79cc6790","createVesting(address,uint256,uint256,uint256,bool)":"26855d69","decimals()":"313ce567","getReleasableAmount(address)":"2afd1a7d","getRoleAdmin(bytes32)":"248a9ca3","grantRole(bytes32,address)":"2f2ff15d","hasRole(bytes32,address)":"91d14854","mint(address,uint256,string)":"d3fc9864","name()":"06fdde03","releaseVestedTokens()":"54dd1da4","remainingSupply()":"da0239a6","renounceRole(bytes32,address)":"36568abe","revokeRole(bytes32,address)":"d547741f","revokeVesting(address)":"3b0da260","supportsInterface(bytes4)":"01ffc9a7","symbol()":"95d89b41","totalMinted()":"a2309ff8","totalSupply()":"18160ddd","transfer(address,uint256)":"a9059cbb","transferFrom(address,address,uint256)":"23b872dd","vestingSchedules(address)":"fdb20ccb"},"id":29}